:0400000077EF19F08D
:1008000000566F6C74616A653A2025302E3266009E
:100810004144433A20257500696E66006E616E00A2
:0108200000D7
:10082200000E0001816F56C082F057C083F058C09D
:1008320084F059C085F085BF23EF04F021EF04F066
:1008420037EF04F0010E816F82C001F083C002F025
:1008520084C003F085C004F012EC19F001C082F0EC
:1008620002C083F003C084F004C085F0000E0001D2
:10087200876F000E866FB8C075F0B9C076F08151EF
:10088200D8B446EF04F048EF04F05CEF04F0815175
:10089200D8A44EEF04F050EF04F056EF04F0000E2F
:1008A200676F2B0E666F5AEF04F0000E676F2D0E06
:1008B200666F66C081F082C001F083C002F084C01E
:1008C20003F085C004F008EC15F001040210D8A46E
:1008D2006DEF04F06FEF04F09EEF04F00001815120
:1008E200D8B476EF04F078EF04F081EF04F081C021
:1008F20000F17507D8A07607000E876F010E866F8C
:10090200000E8625016E010E8721026E180E036EFF
:10091200D9EC18F00001FD0E7527FF0E762355C0A5
:100922000FF0000E106E010E116E75C012F076C03F
:1009320013F06DEC17F039EF09F082C001F083C0BB
:1009420002F084C003F085C004F008EC15F00150F9
:100952000210D8A4AFEF04F0B1EF04F0CFEF04F02F
:1009620000018151D8B4B8EF04F0BAEF04F0C3EF3C
:1009720004F081C000F17507D8A07607000E876FDA
:10098200010E866F000E8625016E010E8721026E12
:100992001C0E036ED9EC18F08BEF04F0000E000170
:1009A200886F000E896F800E8A6F3F0E8B6F000E6C
:1009B200706F000E6F6F82C001F083C002F084C0BE
:1009C20003F085C004F0000E056E000E066E000EE8
:1009D200076E000E086E45EC16F0D8B0F3EF04F087
:1009E200F5EF04F0D4EF05F002EF05F071C088F0E6
:1009F20072C089F073C08AF074C08BF000016F4B33
:100A0200702B88C00FF089C010F08AC011F08BC023
:100A120012F0000E136E000E146E200E156E410EB3
:100A2200166E9AEC0BF00FC071F010C072F011C08C
:100A320073F012C074F000017151825D016E725147
:100A42008359026E73518459036E74518559046E31
:100A520000EC18F004BE39EF05F004500310021048
:100A620009E1020E015CD8A039EF05F03BEF05F079
:100A7200F7EF04F071C028F072C029F073C02AF0B9
:100A820074C02BF082C02CF083C02DF084C02EF0F5
:100A920085C02FF086EC14F0D8A052EF05F054EF89
:100AA20005F0F7EF04F000018851825D016E895173
:100AB2008359026E8A518459036E8B518559046E93
:100AC20000EC18F004BE73EF05F00450031002109E
:100AD20007E1020E015CD8B071EF05F073EF05F08B
:100AE200BBEF05F088C082F089C083F08AC084F031
:100AF2008BC085F0D4EF05F088C028F089C029F0BA
:100B02008AC02AF08BC02BF0000E2C6E000E2D6EC8
:100B1200200E2E6E410E2F6EAFEC0DF028C088F025
:100B220029C089F02AC08AF02BC08BF000016F0720
:100B3200D8A070078851825D016E89518359026E77
:100B42008A518459036E8B518559046E00EC18F05A
:100B520004BEB9EF05F004500310021007E1020EC3
:100B6200015CD8B0B7EF05F0B9EF05F0BBEF05F0C7
:100B720073EF05F082C028F083C029F084C02AF008
:100B820085C02BF088C02CF089C02DF08AC02EF0D1
:100B92008BC02FF086EC14F0D8A0D2EF05F0D4EF82
:100BA20005F07DEF05F05AC069F069C06AF00001F6
:100BB200BBBFDEEF05F0E0EF05F0E6EF05F0BAC0EF
:100BC20062F0BBC063F0EAEF05F0000E636F060E41
:100BD200626F62C06DF063C06EF06D4B6E2B660E7D
:100BE2006A19D8A4F7EF05F0F9EF05F019EF06F04E
:100BF20070BF00EF06F0FEEF05F00CEF06F0000EFE
:100C0200886F000E896F800E8A6F3F0E8B6F000E09
:100C1200706F000E6F6F670E6919D8B413EF06F08C
:100C220015EF06F019EF06F06F516D2770516E2324
:100C3200000E806F000E7F6F82C077F083C078F065
:100C420084C079F085C07AF088C071F089C072F0F2
:100C52008AC073F08BC074F0AAEF06F077C028F058
:100C620078C029F079C02AF07AC02BF088C02CF025
:100C720089C02DF08AC02EF08BC02FF0AFEC0DF0A2
:100C820028C041F029C042F02AC043F02BC044F0F2
:100C9200F9EC10F041C07BF042C07CF043C07DF023
:100CA20044C07EF07BC001F07CC002F07DC003F046
:100CB2007EC004F003EC14F001C06BF002C06CF0D3
:100CC20077C028F078C029F079C02AF07AC02BF0DA
:100CD2007BC013F07CC014F07DC015F07EC016F00E
:100CE20088C00FF089C010F08AC011F08BC012F0DA
:100CF2009AEC0BF00FC02CF010C02DF011C02EF0AA
:100D020012C02FF053EC18F028C077F029C078F009
:100D12002AC079F02BC07AF088C028F089C029F067
:100D22008AC02AF08BC02BF0000E2C6E000E2D6EA6
:100D3200200E2E6E410E2F6EAFEC0DF028C088F003
:100D420029C089F02AC08AF02BC08BF000017F4BAA
:100D5200802B6D517F5D8051800A5B6E6E51800ADF
:100D62005B58D8A0B7EF06F0B9EF06F02FEF06F008
:100D720088C00FF089C010F08AC011F08BC012F049
:100D8200000E136E000E146EA00E156E400E166E3F
:100D92009AEC0BF00FC07BF010C07CF011C07DF01C
:100DA20012C07EF077C028F078C029F079C02AF00E
:100DB2007AC02BF07BC02CF07CC02DF07DC02EF0D1
:100DC2007EC02FF086EC14F0D8B0EAEF06F0ECEF1C
:100DD20006F0F7EF06F0000E00017B6F000E7C6F4D
:100DE200000E7D6F000E7E6F20EF07F077C001F0DE
:100DF20078C002F079C003F07AC004F07BC005F03D
:100E02007CC006F07DC007F07EC008F045EC16F00D
:100E1200D8A00EEF07F010EF07F020EF07F0000167
:100E22006BB116EF07F018EF07F020EF07F0000E96
:100E32007B6F000E7C6F000E7D6F000E7E6F82C096
:100E420001F083C002F084C003F085C004F07BC0CF
:100E520005F07CC006F07DC007F07EC008F03AECD9
:100E620009F001C077F002C078F003C079F004C045
:100E72007AF077C028F078C029F079C02AF07AC0D9
:100E82002BF0000E136E000E146E200E156E410E26
:100E9200166E71C00FF072C010F073C011F074C002
:100EA20012F09AEC0BF00FC02CF010C02DF011C014
:100EB2002EF012C02FF086EC14F0D8A063EF07F0EA
:100EC20065EF07F08EEF07F000016F4B702B71C0DA
:100ED2000FF072C010F073C011F074C012F0000E67
:100EE200136E000E146E200E156E410E166E9AECE5
:100EF2000BF00FC071F010C072F011C073F012C08D
:100F020074F0660E00016A19D8A48AEF07F08CEF1C
:100F120007F08EEF07F06D4B6E2B71C088F072C038
:100F220089F073C08AF074C08BF06FC060F070C03B
:100F320061F0000E0001686F000E656F000E646FB5
:100F4200000E806F000E7F6F8CEF08F077C028F0E4
:100F520078C029F079C02AF07AC02BF088C02CF032
:100F620089C02DF08AC02EF08BC02FF0AFEC0DF0AF
:100F720028C041F029C042F02AC043F02BC044F0FF
:100F8200F9EC10F041C07BF042C07CF043C07DF030
:100F920044C07EF07BC001F07CC002F07DC003F053
:100FA2007EC004F003EC14F002BEE3EF07F002503F
:100FB20007E10A0E015CD8B0E1EF07F0E3EF07F0BA
:100FC200F3EF07F07BC001F07CC002F07DC003F0BC
:100FD2007EC004F003EC14F001C06BF002C06CF0B0
:100FE200F8EF07F0000E00016C6F090E6B6F000145
:100FF2006851D8A4FFEF07F001EF08F029EF08F0DD
:1010020061BF08EF08F006EF08F029EF08F0000EC4
:101012008625D96E010E8721DA6E2E0EDF6E864B83
:10102200872B7507D8A07607010E686F29EF08F0A5
:10103200000E8625D96E010E8721DA6E300EDF6E24
:10104200864B872B7507D8A076076407D8A065075B
:1010520064516511D8A430EF08F032EF08F019EFAF
:1010620008F0000E8625D96E010E8721DA6E6B51CB
:10107200300FDF6E864B872B7507D8A0760777C0B7
:1010820028F078C029F079C02AF07AC02BF07BC012
:1010920013F07CC014F07DC015F07EC016F088C03D
:1010A2000FF089C010F08AC011F08BC012F09AECD8
:1010B2000BF00FC02CF010C02DF011C02EF012C09A
:1010C2002FF053EC18F028C077F029C078F02AC02E
:1010D20079F02BC07AF088C028F089C029F08AC044
:1010E2002AF08BC02BF0000E2C6E000E2D6E200EFF
:1010F2002E6E410E2F6EAFEC0DF028C088F029C085
:1011020089F02AC08AF02BC08BF000016007D8A0BA
:1011120061077F4B802B6D517F5D8051800A5B6E32
:101122006E51800A5B58D8B099EF08F09BEF08F037
:10113200A9EF08F087BFA7EF08F0875109E14B0E2E
:10114200865DD8A0A7EF08F0A9EF08F0A7EF07F097
:10115200000E806F4F0E7F6F000E7F25D96E010E3D
:101162008021DA6EDF6A000E5B6E010E5C6E8651C4
:101172005B5E87515C5A7F515B24016E80515C201B
:10118200026E000E036E010E046E86C005F087C06B
:1011920006F02BEC18F0000186517F5D866F8751B7
:1011A2008059876F8151D8A4D9EF08F0DCEF08F09D
:1011B200010EDDEF08F0000E7F6F806BBEA3E4EF3F
:1011C20008F0E6EF08F014EF09F0F6EF08F08607F2
:1011D200D8A08707000E8625D96E010E8721DA6E08
:1011E200300EDF6E7507D8A0760775517F5D80518E
:1011F200800A5B6E7651800A5B58D8B003EF09F023
:1012020005EF09F014EF09F086517F5D8051800AE5
:101212005B6E8751800A5B58D8A012EF09F014EF79
:1012220009F0E8EF08F08151D8B41AEF09F01CEF89
:1012320009F027EF09F08607D8A08707000E862558
:10124200D96E010E8721DA6E81C0DFFF7F51755F93
:101252008051765B55C00FF0000E8625106E010E90
:101262008721116E75C012F076C013F06DEC17F085
:1012720012000450800B0D6E045004240F6E03AE56
:1012820045EF09F047EF09F048EF09F00F800F50E2
:10129200D8B44EEF09F050EF09F065EF09F00F28CE
:1012A200D8A456EF09F058EF09F060EF09F0000EEC
:1012B200016E000E026E000E036E000E046E038EAF
:1012C200000E046E6DEF09F0000E016E000E026E4C
:1012D200000E036E000E046E0850800B0E6E0D5051
:1012E2000E18D8B477EF09F079EF09F07AEF09F028
:1012F2000D8C085008240E6E07AE82EF09F084EFC1
:1013020009F085EF09F00E800E50D8B48BEF09F08A
:101312008DEF09F0A2EF09F00E28D8A493EF09F09F
:1013220095EF09F09DEF09F0000E056E000E066EB6
:10133200000E076E000E086E078E000E086EAAEFF2
:1013420009F0000E056E000E066E000E076E000E0E
:10135200086E0F500E5CD8B0B1EF09F0B3EF09F090
:10136200DAEF09F00DACB8EF09F0BAEF09F0BCEF13
:1013720009F0800E0D1A0FC010F00EC00FF010C051
:101382000EF001C010F005C001F010C005F002C05F
:1013920010F006C002F010C006F003C010F007C043
:1013A20003F010C007F004C010F008C004F010C031
:1013B20008F0000E106E0F500EC009F00A6A095EA6
:1013C200000E0A5A0ABEEFEF09F00A5009E11A0E9E
:1013D200095CD8A0EFEF09F0F1EF09F028EF0AF06D
:1013E2000150021003100410D8A4FAEF09F0FDEF27
:1013F20009F0010EFEEF09F0000E106E000E016EF4
:10140200000E026E000E036E000E046E0EC00FF090
:1014120031EF0AF010A010EF0AF012EF0AF018EF05
:101422000AF0D89010300109106E1AEF0AF0D89025
:10143200103201A01FEF0AF021EF0AF022EF0AF0AA
:10144200108E043404320332023201320F2A0E505B
:101452000F5CD8A02FEF0AF031EF0AF00BEF0AF081
:101462000DBC36EF0AF038EF0AF078EF0AF00F50B1
:10147200D8A43EEF0AF040EF0AF04AEF0AF0000E5D
:10148200016E000E026E000E036E000E046E99EFE6
:101492000BF0055001260650022207500322085085
:1014A200042204A057EF0AF059EF0AF005EF0BF0FF
:1014B20010A05EEF0AF060EF0AF066EF0AF0D89033
:1014C20010300109106E68EF0AF0D890103201A0B6
:1014D2006DEF0AF06FEF0AF070EF0AF0108E04342D
:1014E20004320332023201320F2A05EF0BF00550AB
:1014F200015C06500258075003580450800A096ED6
:101502000850800A0958D8B089EF0AF08BEF0AF028
:10151200B6EF0AF00150055C096E025006580A6ED9
:10152200035007580B6E045008580C6EFF0E092426
:10153200016EFF0E0A20026EFF0E0B20036EFF0EDD
:101542000C20046E800E0D1A106C1050D8A4ACEF53
:101552000AF0AEEF0AF0BEEF0AF0010E0126000E0D
:10156200022203220422BEEF0AF00550015E065059
:10157200025A0750035A0850045A0150021003102D
:101582000410D8A4C7EF0AF0C9EF0AF0FEEF0AF080
:101592001050D8A4CFEF0AF0D1EF0AF0FEEF0AF014
:1015A200000E016E000E026E000E036E000E046E3F
:1015B20099EF0BF0D890013602360336043610AE9E
:1015C200E5EF0AF0E7EF0AF0E8EF0AF0018010A079
:1015D200EDEF0AF0EFEF0AF0F3EF0AF0D8801036E1
:1015E200F5EF0AF0D89010360F50D8B4FBEF0AF09E
:1015F200FDEF0AF0FEEF0AF00F0603AE03EF0BF069
:1016020005EF0BF0DBEF0AF0000E0E6E10AE0CEFE2
:101612000BF00EEF0BF026EF0BF010C009F07F0E6F
:101622000916D8B417EF0BF019EF0BF01DEF0BF002
:10163200010E0E6E26EF0BF001A022EF0BF024EF4D
:101642000BF026EF0BF019EF0BF00E50D8B42CEF85
:101652000BF02EEF0BF059EF0BF0010E0126000EEE
:1016620002220322042204A039EF0BF03BEF0BF01D
:1016720059EF0BF001C009F002C00AF003C00BF0F1
:1016820004C00CF00C340C320B320A32093209C09D
:1016920001F00AC002F00BC003F00CC004F00F28E6
:1016A200D8B456EF0BF058EF0BF059EF0BF00F2AAE
:1016B2000F28D8B45FEF0BF061EF0BF069EF0BF07E
:1016C2000F50D8A467EF0BF069EF0BF07BEF0BF034
:1016D200000E016E000E026E000E036E000E046E0E
:1016E2000F50D8A477EF0BF079EF0BF07BEF0BF0F4
:1016F200000E0D6E0FA080EF0BF082EF0BF085EF66
:101702000BF0038E86EF0BF0039ED8900F30046E21
:101712000DAE8EEF0BF090EF0BF091EF0BF0048E0D
:1017220001C001F002C002F003C003F004C004F0E3
:1017320012001250800B1B6E12501224216E11AE39
:10174200A5EF0BF0A7EF0BF0A8EF0BF021802150D3
:10175200D8B4AEEF0BF0B0EF0BF0C3EF0BF02128D3
:10176200D8A4B6EF0BF0B8EF0BF0C0EF0BF0000E01
:101772000F6E000E106E000E116E000E126E118EA4
:10178200CBEF0BF0000E0F6E000E106E000E116EFE
:10179200000E126E1650800B1B1A165016241C6E69
:1017A20015AED6EF0BF0D8EF0BF0D9EF0BF01C8093
:1017B2001C50D8B4DFEF0BF0E1EF0BF0F4EF0BF0BD
:1017C2001C28D8A4E7EF0BF0E9EF0BF0F1EF0BF0D8
:1017D200000E136E000E146E000E156E000E166EC5
:1017E200158EFCEF0BF0000E136E000E146E000E41
:1017F200156E000E166E1C50D8B402EF0CF004EFFA
:101802000CF00CEF0CF02150D8A40AEF0CF00CEF06
:101812000CF016EF0CF0000E0F6E000E106E000EA4
:10182200116E000E126EAEEF0DF015500F02F3CFD7
:1018320026F0F4CF27F026501D6E1E6A1F6A206A1A
:101842002750226E236A246A256A14501002F3CFAD
:1018520026F0F4CF27F026501D26000E1E221F224E
:10186200202227502226000E232224222522135032
:101872001102F3CF26F0F4CF27F026501D26000EDA
:101882001E221F22202227502226000E232224223B
:1018920025221FC020F01EC01FF01DC01EF01D6AB1
:1018A20013501002F3CF26F0F4CF27F026501D2656
:1018B20027501E22000E1F22000E202214500F025B
:1018C200F3CF26F0F4CF27F026501D2627501E22F4
:1018D200000E1F22000E20221FC020F01EC01FF08B
:1018E2001DC01EF01D6A13500F02F3CF26F0F4CF75
:1018F20027F026501D2627501E22000E1F22000E02
:10190200202215501002F3CF26F0F4CF27F02650F4
:10191200222627502322000E2422000E25221450B4
:101922001102F3CF26F0F4CF27F0265022262750BB
:101932002322000E2422000E252215501102F3CF7D
:1019420026F0F4CF27F02650176E2750186E196A2A
:101952001A6A19C01AF018C019F017C018F0176ADD
:101962001750222618502322195024221A502522B9
:101972001DC017F01EC018F01FC019F020C01AF0C9
:10198200190EC9EF0CF0D8901A32193218321732E8
:10199200E82EC4EF0CF017502226185023221950BB
:1019A20024221A5025221FC020F01EC01FF01DC085
:1019B2001EF01D6A1C5021C017F0186A1726000E6F
:1019C2001822820E1724266EFF0E1820276EFFEFB4
:1019D2000CF0D890223623362436253620AEF4EF8A
:1019E2000CF0F6EF0CF0F7EF0CF02280D8901D36D9
:1019F2001E361F3620362606D8A0270624AE04EF50
:101A02000DF006EF0DF0EAEF0CF0000E1C6E20AEAA
:101A12000DEF0DF00FEF0DF033EF0DF0FF0E1D1473
:101A2200176EFF0E1E14186EFF0E1F14196E7F0E16
:101A320020141A6E1750181019101A10D8B424EF67
:101A42000DF026EF0DF02AEF0DF0010E1C6E33EFB4
:101A52000DF022A02FEF0DF031EF0DF033EF0DF06E
:101A620026EF0DF01C50D8B439EF0DF03BEF0DF01E
:101A72005FEF0DF0010E2226000E232224222522E2
:101A820025A046EF0DF048EF0DF05FEF0DF022C0FC
:101A920017F023C018F024C019F025C01AF01A3428
:101AA2001A3219321832173217C022F018C023F036
:101AB20019C024F01AC025F0264A272A27BE6AEF49
:101AC2000DF0275008E12628D8A06AEF0DF06CEF40
:101AD2000DF076EF0DF0000E226E000E236E800EDA
:101AE200246E7F0E256EA4EF0DF027BE83EF0DF05E
:101AF200275006E12604D8B081EF0DF083EF0DF0F8
:101B02008FEF0DF0000E226E000E236E000E246E7B
:101B1200000E256E000E1B6EA4EF0DF026C021F004
:101B2200FF0E2216FF0E23167F0E2416000E251618
:101B320021A09EEF0DF0A0EF0DF0A1EF0DF0248E8D
:101B4200D8902130256E1B50251222C00FF023C0E1
:101B520010F024C011F025C012F012002B50800B9F
:101B6200386E2B502B243F6E2AAEBAEF0DF0BCEF2D
:101B72000DF0BDEF0DF03F803F50D8B4C3EF0DF034
:101B8200C5EF0DF0DAEF0DF03F28D8A4CBEF0DF042
:101B9200CDEF0DF0D5EF0DF0000E286E000E296E80
:101BA200000E2A6E000E2B6E2A8E000E2B6EE2EFB6
:101BB2000DF0000E286E000E296E000E2A6E000E29
:101BC2002B6E2F50800B381A2F502F24406E2EAEC2
:101BD200EDEF0DF0EFEF0DF0F0EF0DF04080405023
:101BE200D8B4F6EF0DF0F8EF0DF00DEF0EF040283F
:101BF200D8A4FEEF0DF000EF0EF008EF0EF0000E8D
:101C02002C6E000E2D6E000E2E6E000E2F6E2E8E7E
:101C1200000E2F6E15EF0EF0000E2C6E000E2D6EC4
:101C2200000E2E6E000E2F6E2C502D102E102F1027
:101C3200D8A41EEF0EF020EF0EF038EF0EF0000EDB
:101C4200286E000E296E000E2A6E000E2B6E800E7C
:101C52002A127F0E2B1238502B1228C028F029C0CE
:101C620029F02AC02AF02BC02BF07BEF0FF03F5057
:101C7200D8A43EEF0EF040EF0EF04AEF0EF0000E49
:101C8200286E000E296E000E2A6E000E2B6E7BEF60
:101C92000FF040503FC030F0316A305E000E315AD2
:101CA2007F0E3024396E000E31203A6E28C034F097
:101CB20029C035F02AC036F02BC037F0000E286E4E
:101CC200000E296E000E2A6E000E2B6E000E3B6E69
:101CD200000E3C6E000E3D6E000E3E6E000E406E1B
:101CE200ABEF0EF04050D8B479EF0EF07BEF0EF070
:101CF20092EF0EF0D8903436353636363736D890E5
:101D0200283629362A362B363EAE8AEF0EF08CEF75
:101D12000EF08DEF0EF02880D8903B363C363D36E3
:101D22003E362C50345C2D5035582E5036582F509C
:101D32003758D8A09FEF0EF0A1EF0EF0AAEF0EF0E9
:101D42003E8C2C50345E2D50355A2E50365A2F5020
:101D5200375A402A190E4064B1EF0EF0B3EF0EF07D
:101D620073EF0EF03450351036103710D8B4BCEF84
:101D72000EF0BEEF0EF0D6EF0EF03B80D6EF0EF077
:101D8200D890283629362A362B363EAECBEF0EF0C7
:101D9200CDEF0EF0CEEF0EF02880D8903B363C36D9
:101DA2003D363E363906D8A03A062AAEDBEF0EF0B3
:101DB200DDEF0EF0C1EF0EF0000E406E3EAEE4EF2E
:101DC2000EF0E6EF0EF00AEF0FF0FF0E3B14306E4E
:101DD200FF0E3C14316EFF0E3D14326E7F0E3E1428
:101DE200336E3050311032103310D8B4FBEF0EF096
:101DF200FDEF0EF001EF0FF0010E406E0AEF0FF053
:101E020028A006EF0FF008EF0FF00AEF0FF0FDEF3A
:101E12000EF04050D8B410EF0FF012EF0FF036EF83
:101E22000FF0010E2826000E29222A222B222BA097
:101E32001DEF0FF01FEF0FF036EF0FF028C030F05C
:101E420029C031F02AC032F02BC033F033343332A0
:101E520032323132303230C028F031C029F032C053
:101E62002AF033C02BF0394A3A2A3ABE41EF0FF03A
:101E72003A5008E13928D8A041EF0FF043EF0FF0B4
:101E82004EEF0FF0000E3A6E3968000E286E000E0B
:101E9200296E000E2A6E000E2B6E3ABE5BEF0FF01B
:101EA2003A5006E13904D8B059EF0FF05BEF0FF06A
:101EB20069EF0FF0000E3A6E000E396E000E286EBA
:101EC200000E296E000E2A6E000E2B6E000E386E6A
:101ED20039C03FF03FA070EF0FF072EF0FF075EFD7
:101EE2000FF02A8E76EF0FF02A9ED8903F302B6E9D
:101EF2002CEF0EF012005E50D96EDA6ADFCFF6FFD9
:101F0200080EF76E0800F550250AD8A48BEF0FF0E3
:101F12008DEF0FF0E7EF10F05E50D96EDA6ADF2A2C
:101F2200000E0001B96F000EB86FB8C0BEF0BA69FA
:101F3200BB69000E8E6FC2EF0FF0BE835E50D96E8A
:101F4200DA6ADF2AC2EF0FF0010E8E6FC2EF0FF0D6
:101F52005E50D96EDA6ADFCFF6FF080EF76E080020
:101F6200F5508C6F8D6B8D51000AD8B4BBEF0FF01A
:101F7200A5EF0FF08C51300AD8B49EEF0FF0A5EF09
:101F82000FF08E51D8B4C8EF0FF0CAEF0FF0A9EFDF
:101F92000FF05E50D96EDA6ADFCFF6FF080EF76EE9
:101FA2000800F5502E0AD8A4D9EF0FF0DBEF0FF09E
:101FB200E9EF0FF05E50D96EDA6ADF2A5EC007F0F1
:101FC2005FC008F09AEC16F007C0BAF008C0BBF088
:101FD2005E50D96EDA6ADF500001946F94C0F6FF4A
:101FE200080EF76E0800F550750AD8A4FBEF0FF043
:101FF200FDEF0FF030EF10F05F50D96EDA6A020E8B
:10200200DF26DF5CD96EDA6ADECF8FF0DECF90F0AA
:102012005E50D96EDA6A9429DF6E1AEF10F05DC055
:1020220017F08FC018F090C019F0DCEC12F0F8EF46
:1020320010F094C0F6FF080EF76E0800F5508C6F92
:102042008D6B8D51000AD8B429EF10F030EF10F0EB
:102052008C51750AD8B410EF10F030EF10F05E50CA
:10206200D96EDA6ADF50946F94C0F6FF080EF76EED
:102072000800F5CF93F049EF10F0942B62EF10F0C7
:102082006C0E936F62EF10F0000E936F62EF10F020
:1020920093518C6F8D6B8D51000AD8B453EF10F0B1
:1020A20045EF10F08C514C0AD8B43EEF10F02A0ADA
:1020B200D8B441EF10F00A0AD8B43EEF10F045EF61
:1020C20010F094C0F6FF080EF76E0800F550660A8D
:1020D200D8A46EEF10F070EF10F0E1EF10F09AEF6D
:1020E20010F05F50D96EDA6ADFCF8CF0040EDF2673
:1020F2008C51D96EDA6ADECF8FF0DECF90F0DECF70
:1021020091F0DECF92F0AFEF10F05F50D96EDA6A45
:10211200DFCF8CF0040EDF268C51D96EDA6ADECF67
:102122008FF0DECF90F0DECF91F0DECF92F0AFEF06
:1021320010F093518C6F8D6B8D51000AD8B4A4EFBF
:1021420010F0AFEF10F08C514C0AD8B486EF10F0BB
:10215200200AD8B472EF10F0AFEF10F05E50D96ED3
:10216200DA6A9429DF6ECBEF10F05DC055F08FC0B4
:1021720056F090C057F091C058F092C059F094C0F8
:10218200F6FF080EF76E0800F5CF5AF011EC04F0D6
:10219200F8EF10F094C0F6FF080EF76E0800F55045
:1021A2008C6F8D6B8D51000AD8B4DAEF10F0E1EF2D
:1021B20010F08C51660AD8B4B6EF10F0E1EF10F0CF
:1021C2005E50D96EDA6ADF2AF8EF10F05E50D96EEF
:1021D200DA6ADFCFF6FF080EF76E0800F550016EDF
:1021E200026A5DC003F0F0EC15F0E1EF10F01200AE
:1021F200ACC051F0ADC052F0AEC053F0AFC054F01D
:1022020041C051F042C052F043C053F044C054F0B8
:10221200810E456EFF0E466E51C047F052C048F027
:1022220053C049F054C04AF0180E1DEF11F0D89077
:102232004A32493248324732E82E18EF11F04750FD
:1022420045244F6E000E4620506E50BE32EF11F004
:10225200505009E1170E4F5CD8A032EF11F034EF65
:1022620011F03EEF11F041C041F042C042F043C0D4
:1022720043F044C044F001EF12F050BE43EF11F0BE
:1022820045EF11F0B5EF11F04FC045F0FF0E466E6D
:10229200FF0E476E7F0E486E000E496E456654EF84
:1022A20011F05CEF11F0493449324832473246327C
:1022B200452E4FEF11F046C04BF047C04CF048C0DE
:1022C2004DF049C04EF04B505114456E4C505214D3
:1022D200466E4D505314476E4E505414486E45503E
:1022E200461047104810D8A479EF11F07BEF11F097
:1022F2007DEF11F034EF11F051C045F052C046F0BD
:1023020053C047F054C048F0200E8DEF11F0D89022
:102312004832473246324532E82E88EF11F04550B6
:10232200461047104810D8B499EF11F09BEF11F006
:10233200A3EF11F04B5051264C5052224D505322D4
:102342004E5054224B1C456E4C1C466E4D1C476E23
:102352004E1C486E45505116465052164750531661
:1023620048505416F9EF11F051C045F052C046F0F2
:1023720053C047F054C048F0200EC5EF11F0D8907A
:102382004832473246324532E82EC0EF11F045500E
:10239200461047104810D8A4D1EF11F0D3EF11F036
:1023A200DDEF11F0000E516E000E526E000E536EF4
:1023B200000E546EF9EF11F0D8905134456E52343C
:1023C200466E5334476E5434486E4550461047109B
:1023D2004810D8B4EFEF11F0F1EF11F0F9EF11F06E
:1023E200000E516E000E526E800E536EBF0E546E72
:1023F20051C041F052C042F053C043F054C044F0C7
:102402001200096E0950D8B409EF12F00BEF12F066
:102412002DEF12F004BE12EF12F010EF12F02DEFBA
:1024220012F001C005F002C006F003C007F004C0BC
:1024320008F0051E061E071E081E052A000E0622AB
:102442000722082205C00BF006C00CF007C00DF0F1
:1024520008C00EF035EF12F001C00BF002C00CF014
:1024620003C00DF004C00EF001500210031004105E
:10247200D8A43EEF12F040EF12F04AEF12F0000E35
:10248200016E000E026E000E036E000E046EDBEF94
:1024920012F0960E0A6E54EF12F00A2AD8900E32FB
:1024A2000D320C320B32000E0B14056E000E0C14A2
:1024B200066E000E0D14076EFE0E0E14086E055009
:1024C200061007100810D8A469EF12F06BEF12F093
:1024D2004EEF12F079EF12F00A2A010E0B26000ECF
:1024E2000C220D220E22D8900E320D320C320B32FB
:1024F200000E0B14056E000E0C14066E000E0D1469
:10250200076EFF0E0E14086E055006100710081015
:10251200D8A48EEF12F090EF12F06DEF12F098EF58
:1025220012F00A06D8900B360C360D360E360DBE5A
:102532009DEF12F09FEF12F0A7EF12F0020E0A6069
:10254200A5EF12F0A7EF12F092EF12F00AB0ACEF83
:1025520012F0AEEF12F0AFEF12F00D9ED8900A32E9
:102562000AC005F0066A076A086A05C008F0076A29
:10257200066A056A05500B1206500C1207500D121E
:1025820008500E120950D8B4C9EF12F0CBEF12F076
:10259200D3EF12F004BED2EF12F0D0EF12F0D3EF6D
:1025A20012F00E8E0BC001F00CC002F00DC003F051
:1025B2000EC004F012000001BBBFE2EF12F0E4EF24
:1025C20012F0E5EF12F0BE93BBBFECEF12F0EAEFB0
:1025D20012F0F2EF12F0000E1B6E010E1A6EF6EF01
:1025E20012F0BAC01AF0BBC01BF0B8C01CF0B9C0E0
:1025F2001DF0000E1F6E4F0E1E6E000E01014F6F7A
:102602002DEF13F01E06D8A01F06000E1E24D96E51
:10261200010E1F20DA6E18C001F019C002F0000E80
:10262200046E0A0E036EA0EC17F00150300FDF6E3D
:102632001A06D8A01B061C06D8A01D0618C001F059
:1026420019C002F0000E046E0A0E036E33EC17F08E
:1026520001C018F002C019F01E501F10D8B434EF98
:1026620013F036EF13F061EF13F018501910D8A4DD
:102672003DEF13F03FEF13F003EF13F01BBE4CEFEF
:1026820013F01B5006E11A04D8B04AEF13F04CEFD6
:1026920013F003EF13F01DBE57EF13F01D5008E1C6
:1026A2001C04D8A057EF13F059EF13F061EF13F0A9
:1026B2000001BEB35FEF13F061EF13F003EF13F00D
:1026C20017C00FF0000E1E24106E010E1F20116E97
:1026D2001CC012F01DC013F06DEC17F012000E0EAC
:1026E20098EC19F0EDEC16F093908A90000E76ECCF
:1026F20018F001C0BCF002C0BDF0000E136E000E57
:10270200146EA00E156E400E166EBCC001F0BDC058
:1027120002F0000E02BEFF0E036E046E010E02EC0A
:1027220012F001C00FF002C010F003C011F004C09B
:1027320012F09AEC0BF00FC028F010C029F011C073
:102742002AF012C02BF0000E2C6EC00E2D6E7F0EE2
:102752002E6E440E2F6EAFEC0DF028C0B4F029C0DF
:10276200B5F02AC0B6F02BC0B7F0010E046E010E10
:1027720087EC15F0BF0E0001996F100E9A6FBCC066
:102782009BF0BDC09CF0F6EC18F0BF0E056E2EEC6F
:1027920019F0010E046E020E87EC15F0BF0E000157
:1027A200996F010E9A6FB4C09BF0B5C09CF0B6C091
:1027B2009DF0B7C09EF0F6EC18F0BF0E056E2EEC41
:1027C20019F0660E286E660E296E860E2A6E400E6F
:1027D2002B6EB4C02CF0B5C02DF0B6C02EF0B7C031
:1027E2002FF086EC14F0D8B0F9EF13F0FBEF13F0F2
:1027F200FEEF13F08A8077EF13F08A9077EF13F0F1
:1028020000EF00F0033404340A6E0A50D8A40CEF2F
:1028120014F00EEF14F018EF14F0000E016E000E1B
:10282200026E000E036E000E046E85EF14F001C0FE
:1028320005F002C006F003C007F004C008F0200E45
:1028420028EF14F0D8900832073206320532E82E0B
:1028520023EF14F00550096E038EFF0E0116FF0ED2
:102862000216FF0E0316000E0416960E0A5E0ABE2C
:102872003FEF14F03DEF14F055EF14F00A50800AC8
:10288200970FD8B047EF14F049EF14F04BEF14F064
:102892000EEF14F0D89004320332023201320A3EB3
:1028A2004BEF14F06DEF14F01F0E0A645BEF14F09F
:1028B2005DEF14F065EF14F00EEF14F0D8900136CE
:1028C2000236033604360A060A50D8A46BEF14F017
:1028D2006DEF14F05FEF14F00950D8B473EF14F0F9
:1028E20075EF14F07DEF14F0041E031E021E016C3E
:1028F200000E02220322042201C001F002C002F0F3
:1029020003C003F004C004F01200000E2814306E5D
:10291200000E2914316E800E2A14326E7F0E2B1493
:10292200336E3050311032103310D8A49BEF14F0B4
:102932009DEF14F0A5EF14F0000E286E000E296E24
:10294200000E2A6E000E2B6E000E2C14306E000E3E
:102952002D14316E800E2E14326E7F0E2F14336EB4
:102962003050311032103310D8A4BAEF14F0BCEF4B
:1029720014F0C4EF14F0000E2C6E000E2D6E000E3B
:102982002E6E000E2F6E2BAEC9EF14F0CBEF14F0AB
:10299200D4EF14F0286C291ED8B0292A2A1ED8B0E8
:1029A2002A2A800E2B562FAED9EF14F0DBEF14F04B
:1029B200E4EF14F02C6C2D1ED8B02D2A2E1ED8B0A8
:1029C2002E2A800E2F56000E281A000E291A000EEB
:1029D2002A1A800E2B1A000E2C1A000E2D1A000E27
:1029E2002E1A800E2F1A2C50285C2D5029582E504A
:1029F2002A582F502B58D8B001EF15F003EF15F0DD
:102A020006EF15F0D89007EF15F0D8801200B0C08D
:102A12000BF0B1C00CF0B2C00DF0B3C00EF001C0AB
:102A22000BF002C00CF003C00DF004C00EF00BC09E
:102A320005F00CC006F00DC007F00EC008F0180E2D
:102A420028EF15F0D8900832073206320532E82E08
:102A520023EF15F00550096E0A6A09500A10D8A42E
:102A620035EF15F037EF15F057EF15F0D8900B341E
:102A7200056E0C34066E0D34076E0E34086E05506A
:102A8200061007100810D8A449EF15F04BEF15F007
:102A920051EF15F0000E026E020E016E86EF15F078
:102AA200000E026E030E016E86EF15F009280A1061
:102AB200D8A45EEF15F060EF15F082EF15F00BC0B1
:102AC20005F00CC006F00DC007F00EC008F0090EAC
:102AD200D8900536063607360836E82E69EF15F027
:102AE2000550061007100810D8B47AEF15F07DEFE4
:102AF20015F0010E7EEF15F0000E016E026A86EFF0
:102B020015F0000E026E040E016E1200056E050431
:102B1200D8A48EEF15F090EF15F0A1EF15F0045048
:102B22007F0F086E08380F0B066E08500F0B076EEA
:102B3200065088EC19F0075088EC19F0EFEF15F009
:102B4200020E0518D8A4A8EF15F0AAEF15F0BBEFF6
:102B520015F00450BF0F086E08380F0B066E0850B0
:102B62000F0B076E065088EC19F0075088EC19F02D
:102B7200EFEF15F0030E0518D8A4C2EF15F0C4EF5D
:102B820015F0D5EF15F00450930F086E08380F0BAF
:102B9200066E08500F0B076E065088EC19F00750AE
:102BA20088EC19F0EFEF15F0040E0518D8A4DCEF4D
:102BB20015F0DEEF15F0EFEF15F00450D30F086EAD
:102BC20008380F0B066E08500F0B076E065088EC84
:102BD20019F0075088EC19F0EFEF15F012000350CE
:102BE200D8B4F6EF15F0F8EF15F000EF16F0035039
:102BF200D8A4FEEF15F000EF16F005EF16F0015025
:102C0200A7EC19F044EF16F00350D96EDA6A0A0EF7
:102C1200D926DE50DE10D8B411EF16F013EF16F0FD
:102C22002CEF16F00350D96EDA6A0A0ED926035039
:102C3200E16EE26A030EE126DE50E65CE650800AAF
:102C4200086EDE50800A0858D8B02AEF16F02CEF32
:102C520016F044EF16F00350D96EDA6A030ED92645
:102C6200DF50046E0350D96EDA6ADF500424D96E45
:102C7200DA6A01C0DFFF0350D96EDA6A030ED92681
:102C8200DE2A000EDD221200000E0114096E000E73
:102C920002140A6E800E03140B6E7F0E04140C6E67
:102CA20009500A100B100C10D8A45AEF16F05CEF62
:102CB20016F064EF16F0000E016E000E026E000EAA
:102CC200036E000E046E000E0514096E000E06144B
:102CD2000A6E800E07140B6E7F0E08140C6E0950DC
:102CE2000A100B100C10D8A479EF16F07BEF16F037
:102CF20083EF16F0000E056E000E066E000E076ED4
:102D0200000E086E055001180FE1065002180CE182
:102D12000750031809E108500418D8B493EF16F0CD
:102D220095EF16F098EF16F0D89099EF16F0D8803C
:102D32001200000E0B6E000E0A6E0750D96EDA6A90
:102D4200DFCFF6FF080EF76E0800F5502A0AD8A466
:102D5200ADEF16F0AFEF16F0D5EF16F00750D96EC3
:102D6200DA6ADF2A0850D96EDA6A020EDF26DF5CE1
:102D7200D96EDA6ADECF0AF0DECF0BF0E8EF16F09A
:102D82000AC001F00BC002F0000E046E0A0E036EC0
:102D920064EC19F0095001240A6E000E02200B6E39
:102DA2000750D96EDA6ADF2A0750D96EDA6ADFCFA6
:102DB200F6FF080EF76E0800F550D00F096E090EE7
:102DC2000964E6EF16F0E8EF16F0C1EF16F00AC05C
:102DD20007F00BC008F01200959495969598959A75
:102DE200959C959E000ED2EC17F0020E056E380EE1
:102DF200046EAD0EE82EFED7042EFCD7052EFAD7B0
:102E02000000030E88EC19F04E0E046EEB0EE82E55
:102E1200FED7042EFCD70000030E88EC19F0AC0E8E
:102E2200046E6C0EE82EFED7042EFCD700D0030EE3
:102E320088EC19F0020E88EC19F0020E88EC19F0F9
:102E4200080E88EC19F0000E88EC19F00C0E88ECD4
:102E520019F0000E88EC19F0060E88EC19F0A0ECBF
:102E620019F01200000E076E000E066E03500410D9
:102E7200D8B43EEF17F040EF17F068EF17F0010EED
:102E8200056E48EF17F0D89003360436052A04AED3
:102E92004DEF17F04FEF17F044EF17F0D8900636CA
:102EA20007360350015C04500258D8A05BEF17F0BC
:102EB2005DEF17F062EF17F00350015E0450025A03
:102EC2000680D89004320332052E4FEF17F006C069
:102ED20001F007C002F0120013BE74EF17F072EF98
:102EE20017F078EF17F0000E136E000E126E000E40
:102EF200166E000E156E88EF17F0000E026E200E91
:102F0200016E0FC003F0F0EC15F0154A162A1250AC
:102F1200155C1650800A146E1350800A1458D8A0FB
:102F220095EF17F097EF17F07EEF17F010C009F04A
:102F320011C00AF00FC00BF0B9EC18F012000350E8
:102F42000410D8B4A7EF17F0A9EF17F0CDEF17F0E0
:102F5200010E056EB1EF17F0D89003360436052A3C
:102F620004AEB6EF17F0B8EF17F0ADEF17F003505D
:102F7200015C04500258D8A0C1EF17F0C3EF17F05C
:102F8200C7EF17F00350015E0450025AD890043282
:102F92000332052EB8EF17F001C001F002C002F0B3
:102FA2001200016E01A0D8EF17F0DAEF17F0DDEF93
:102FB20017F08C88DEEF17F08C9801A2E3EF17F080
:102FC200E5EF17F0E8EF17F08C8AE9EF17F08C9A2B
:102FD20001A4EEEF17F0F0EF17F0F3EF17F08C8C7F
:102FE200F4EF17F08C9C01A6F9EF17F0FBEF17F046
:102FF200FEEF17F08C8EFFEF17F08C9E120004BECE
:1030020005EF18F007EF18F011EF18F001C001F00A
:1030120002C002F003C003F004C004F02AEF18F06B
:1030220001C005F002C006F003C007F004C008F0BA
:10303200051E061E071E081E052A000E062207226E
:10304200082205C001F006C002F007C003F008C064
:1030520004F0120003C00AF004C00BF001C008F033
:1030620002C009F045EF18F00AC0D9FF0BC0DAFF21
:10307200DF50076E0A4A0B2A08C0D9FF09C0DAFFDF
:1030820007C0DFFF084A092A0506D8A00606052858
:1030920006E10628D8A450EF18F052EF18F035EFE9
:1030A20018F01200000E2C1A000E2D1A000E2E1A05
:1030B200800E2F1A28C001F029C002F02AC003F0A6
:1030C2002BC004F02CC005F02DC006F02EC007F076
:1030D2002FC008F03AEC09F001C028F002C029F034
:1030E20003C02AF004C02BF01200036E0D0E03641D
:1030F2007DEF18F07FEF18F085EF18F0000E026EEA
:10310200000E016E98EF18F0000EC26E0344E846FE
:10311200FC0BC26EC280C282C2B292EF18F094EF70
:1031220018F08DEF18F0C3CF01F0C4CF02F01200F7
:1031320096C098F0A5EF18F095C05DF0980E5E6EFF
:1031420097C05FF07CEC0FF098C0F6FF080EF76EA8
:103152000800F5500009D8A4B1EF18F0B3EF18F049
:103162009DEF18F0000E0001966F000E956F120091
:10317200000E0E6E000E0D6EC8EF18F00CC001F0BE
:10318200026A0BC003F0F0EC15F00D4A0E2A0D5046
:103192000924D96E0E500A20DA6EDF500C6E0C50E4
:1031A200D8A4D6EF18F0D8EF18F0BFEF18F012003D
:1031B20001C005F002C006F0032A0304046E04C035
:1031C200F6FF080EF76E05C0D9FF06C0DAFF054A02
:1031D200062A0800F5CFDFFFDF50D8A4F3EF18F07E
:1031E200F5EF18F0DDEF18F012009B0E00019F6F53
:1031F20099C0A0F0000EA46F000EA36F000EAB6F7B
:10320200000EAA6FA00E956F9AC096F09F0E976F50
:1032120099EC18F000019951A325D96EDA6ADF6A98
:1032220012000150021003100410D8B41BEF19F061
:103232001DEF19F025EF19F0000E011A000E021A07
:10324200000E031A800E041A01C001F002C002F03F
:1032520003C003F004C004F01200000E076E000E5B
:10326200066E3DEF19F005500624D96EDA6ADF507A
:103272004AEC19F0064A072A05500624D96EDA6A82
:10328200DF50D8A447EF19F049EF19F034EF19F0E5
:103292001200046E04500F0B026E0450F00B036E0A
:1032A2008C8403380F0BD2EC17F08C86A00EE82E1C
:1032B200FED78C960250D2EC17F08C86A00EE82E28
:1032C200FED78C96120001500302F3CF05F0F4CF23
:1032D20006F001500402F350062602500302F35096
:1032E200062605C001F006C002F0120001EE00F051
:1032F200500EEE6AE806FDE100EEACF0270EEE6A33
:10330200E806FDE1000EF86E000170EF13F0036EA7
:103312008C940350D2EC17F08C863F0E026E550E41
:10332200E82EFED7022EFCD700008C961200016E0A
:1033320001C0C1FF000EC26E8F0EC06E1200000EE1
:0E33420088EC19F0010E88EC19F01200120050
:020000040030CA
:0E000000210E191EFF8181FF0FC00FE00F407F
:00000001FF
