:0400000037EF04F0E2
:1008000000000F0EC1129280000E956E000E8C6ECD
:1008100080A00DEF04F00FEF04F008EF04F080B0BB
:1008200014EF04F016EF04F00FEF04F0020E026E66
:10083000380E016EAD0EE82EFED7012EFCD7022E2B
:10084000FAD700000E0E036428EF04F02AEF04F03C
:1008500030EF04F0000E036E000E8C6E08EF04F013
:10086000032A03C08CFF08EF04F000EF00F0036AD6
:06087000000101EF04F09D
:020000040030CA
:0E000000210E191EFF8181FF0FC00FE00F407F
:00000001FF
