:0400000007EF00F016
:0A000800028201ED04F02EEF04F077
:10080000000006009EA207EF04F009EF04F019EFC4
:1008100004F08AA00EEF04F012EF04F0016A012A3E
:1008200013EF04F0016A8A500118FE0B01188A6E5A
:100830009E92029211000F0EC11293908A807B0E3D
:10084000CA6ECA849D829E92F28CF28E000ECC6E8D
:10085000160ECB6E2AEF04F007EF00F00290029222
:0608600000011BEF04F093
:020000040030CA
:0E000000210E191EFF8181FF0FC00FE00F407F
:00000001FF
