:040000007CEF00F0A1
:060008000E8250ED04F031
:100018000E80D8CF06F0E8CF07F0E0CF08F0F0A2C6
:1000280018EF00F01AEF00F074EF00F0000E096E00
:10003800000E0A6E8C888C8A1F0E056E710E046E77
:100048001E0EE82EFED7042EFCD7052EFAD700D0B8
:100058008C988C9A1F0E056E710E046E1E0EE82E7B
:10006800FED7042EFCD7052EFAD700D00A2A020E96
:100078000A6441EF00F043EF00F01EEF00F0000EBD
:100088000B6E8C8C8C8E1F0E056E710E046E1E0E00
:10009800E82EFED7042EFCD7052EFAD700D08C9C6C
:1000A8008C9E1F0E056E710E046E1E0EE82EFED776
:1000B800042EFCD7052EFAD700D00B2A020E0B64AB
:1000C80068EF00F06AEF00F045EF00F0092A020E31
:1000D800096471EF00F073EF00F01CEF00F0F0928C
:1000E80008C0E0FF07C0E8FF06C0D8FF0E90100068
:0400F8008AEF04F097
:1008000000000F0EC11293829384F086F08CF0905A
:10081000F18AF088F09EF092F188D08EF28EF28C00
:10082000000E926E000E956E000E896E000E8C6E9C
:10083000010E896E3D0E0D6EE10E0C6E400EE82E1F
:10084000FED70C2EFCD70D2EFAD7020E896E3D0E68
:100850000D6EE10E0C6E400EE82EFED70C2EFCD76E
:100860000D2EFAD7040E896E3D0E0D6EE10E0C6E44
:10087000400EE82EFED70C2EFCD70D2EFAD7080E10
:10088000896E3D0E0D6EE10E0C6E400EE82EFED709
:100890000C2EFCD70D2EFAD718EF04F07CEF00F0E9
:1008A0000600F0A056EF04F058EF04F088EF04F0D3
:1008B000000E036E8C808C828C948C961F0E026EC0
:1008C000710E016E1E0EE82EFED7012EFCD7022EF1
:1008D000FAD700D08C908C928C848C861F0E026E7E
:1008E000710E016E1E0EE82EFED7012EFCD7022ED1
:1008F000FAD700D0032A070E036481EF04F083EFD8
:1009000004F05AEF04F08C908C928C948C96F090BA
:0E0910000E9211000E900E92000101EF04F005
:020000040030CA
:0E000000210E191EFF8181FF0FC00FE00F407F
:00000001FF
