:040000008BEF05F08D
:1008000000456E63656E646572204C454420313A44
:1008100020610D0A00456E63656E646572204C456B
:100820004420323A20630D0A0041706167617220F2
:100830004C454420313A20620D0A004170616761E5
:1008400072204C454420323A20640D0A004C454445
:10085000203120456E63656E6469646F0D0A004C3B
:100860004544203220456E63656E6469646F0D0AED
:10087000004C45442031204170616761646F0D0A6E
:10088000004C45442032204170616761646F0D0A5D
:1008900000000F0EC112939493968A948A96800E4C
:1008A0000E6E250E0F6E000E106E000E116E0EEC09
:1008B00005F0010E026E45EC05F0290E026E45ECC6
:1008C00005F0150E026E45EC05F03B0E026E45EC90
:1008D00005F0120E026E45EC05F072EC05F002BE5A
:1008E0007AEF04F0025008E10104D8A07AEF04F096
:1008F0007CEF04F06DEF04F05FEC05F01A6E9DEFF5
:1009000004F08A844D0E026E45EC05F06DEF04F0A4
:100910008A94710E026E45EC05F06DEF04F08A8644
:100920005F0E026E45EC05F06DEF04F08A96810EC5
:10093000026E45EC05F06DEF04F01A50186E196A5E
:100940001950000AD8B4A7EF04F06DEF04F0185066
:10095000610AD8B481EF04F0030AD8B488EF04F038
:10096000010AD8B48FEF04F0070AD8B496EF04F068
:100970006DEF04F000EF00F0000E096E000E0A6E3D
:10098000000E0B6E000E0C6E0550061007100810BE
:10099000D8B4CDEF04F0CFEF04F005EF05F0010E71
:1009A0000D6ED9EF04F0D8900536063607360836B6
:1009B0000D2A08AEDEEF04F0E0EF04F0D3EF04F010
:1009C000D89009360A360B360C360550015C0650B5
:1009D00002580750035808500458D8A0F2EF04F00A
:1009E000F4EF04F0FDEF04F00550015E0650025AEA
:1009F0000750035A0850045A0980D8900832073229
:100A0000063205320D2EE0EF04F009C001F00AC0F5
:100A100002F00BC003F00CC004F01200949C948E02
:100A2000240EAC6E900EAB6E000EB86EB886000E43
:100A3000016E6C0E026EDC0E036E020E046E0EC0B2
:100A400012F00FC013F010C014F011C015F0020E18
:100A5000D8901236133614361536E82E28EF05F0E6
:100A600012C005F013C006F014C007F015C008F05E
:100A7000BCEC04F0FF0E0124166EFF0E0220176E70
:100A800016C0AFFF1750B06E120050EF05F002C055
:100A9000F6FF080EF76E0800F55080EC05F0022A0C
:100AA00002C0F6FF080EF76E0800F5500009D8A442
:100AB0005CEF05F05EEF05F047EF05F012009EAA2F
:100AC00064EF05F066EF05F05FEF05F0ABA26BEFAA
:100AD00005F06DEF05F06FEF05F0AB98AB889E9ACF
:100AE000AE5012009EBA77EF05F07BEF05F0036A77
:100AF000032A7CEF05F0036A0350016E026A1200BC
:100B0000016EACA286EF05F088EF05F081EF05F0ED
:100B100001C0ADFF12001A6A000EF86E000149EF25
:020B200004F0DF
:020000040030CA
:0E000000210E191EFF8181FF0FC00FE00F407F
:00000001FF
