:04000000B0EF06F067
:070800000025750D0A000040
:100808000A50D96EDA6ADFCFF6FF080EF76E0800D5
:10081800F550250AD8A413EF04F015EF04F0B1EF52
:1008280004F00A50D96EDA6ADF2A000E2E6E000E26
:100838002D6E2DC031F02F6830680A50D96EDA6AF3
:10084800DF50126E12C0F6FF080EF76E0800F55062
:10085800750AD8A432EF04F034EF04F0ABEF04F0DB
:100868000B50D96EDA6A020EDF26DF5CD96EDA6ABF
:10087800DECF0EF0DECF0FF00A50D96EDA6A1228FA
:10088800DF6E95EF04F0200E136E13061350600F01
:10089800D96EDA6A0EC001F00FC002F0000E046EC5
:1008A8000A0E036E0DEC06F00150300FDF6E0EC01D
:1008B80001F00FC002F0000E046E0A0E036E6AEC1F
:1008C80005F001C00EF002C00FF00E500F10D8B4A2
:1008D80070EF04F072EF04F08AEF04F01350D8A41C
:1008E80078EF04F07AEF04F049EF04F08AEF04F0AF
:1008F8001350600FD96EDA6ADF500C6E0C50016E1F
:10090800026A09C003F0C3EC04F0132A200E13187E
:10091800D8A491EF04F093EF04F07CEF04F0C2EF59
:1009280004F012C0F6FF080EF76E0800F5500C6EC2
:100938000D6A0D50000AD8B4A4EF04F0ABEF04F030
:100948000C50750AD8B447EF04F0ABEF04F00A5026
:10095800D96EDA6ADF2AC2EF04F00A50D96EDA6A71
:10096800DFCFF6FF080EF76E0800F550016E026A39
:1009780009C003F0C3EC04F0ABEF04F0120003501D
:10098800D8B4C9EF04F0CBEF04F0D3EF04F0035070
:10099800D8A4D1EF04F0D3EF04F0D8EF04F001505D
:1009A800D4EC06F017EF05F00350D96EDA6A0A0E98
:1009B800D926DE50DE10D8B4E4EF04F0E6EF04F0F8
:1009C800FFEF04F00350D96EDA6A0A0ED9260350F5
:1009D800E16EE26A030EE126DE50E65CE650800A2C
:1009E800086EDE50800A0858D8B0FDEF04F0FFEF1B
:1009F80004F017EF05F00350D96EDA6A030ED92612
:100A0800DF50046E0350D96EDA6ADF500424D96EC1
:100A1800DA6A01C0DFFF0350D96EDA6A030ED926FD
:100A2800DE2A000EDD221200000E096E000E0A6E8C
:100A3800000E0B6E000E0C6E055006100710081005
:100A4800D8B429EF05F02BEF05F061EF05F0010EA2
:100A58000D6E35EF05F0D8900536063607360836A0
:100A68000D2A08AE3AEF05F03CEF05F02FEF05F040
:100A7800D89009360A360B360C360550015C0650FC
:100A880002580750035808500458D8A04EEF05F0F4
:100A980050EF05F059EF05F00550015E0650025A77
:100AA8000750035A0850045A0980D8900832073270
:100AB800063205320D2E3CEF05F009C001F00AC0E0
:100AC80002F00BC003F00CC004F01200000E066E1A
:100AD800000E056E03500410D8B475EF05F077EFDB
:100AE80005F09FEF05F0010E076E7FEF05F0D89037
:100AF80003360436072A04AE84EF05F086EF05F0C6
:100B08007BEF05F0D890053606360350015C04509B
:100B18000258D8A092EF05F094EF05F099EF05F090
:100B28000350015E0450025A0580D8900432033203
:100B3800072E86EF05F005C001F006C002F012008E
:100B4800949C948E240EAC6E900EAB6E000EB86E14
:100B5800B886000E016E6C0E026EDC0E036E020E7D
:100B6800046E0EC012F00FC013F010C014F011C0C4
:100B780015F0020ED8901236133614361536E82EB4
:100B8800BEEF05F012C005F013C006F014C007F060
:100B980015C008F018EC05F0FF0E0124166EFF0EC4
:100BA8000220176E16C0AFFF1750B06E12000E0E5F
:100BB800CCEC06F0800E0E6E250E0F6E000E106E39
:100BC800000E116EA4EC05F0000E3FEC06F001C01B
:100BD8002BF002C02CF0320E186E010E196E2BC0CD
:100BE8001AF02CC01BF081EC06F0320E026E9BEC62
:100BF80006F00A0E2A6E220E296EA10EE82EFED7E6
:100C0800292EFCD72A2EFAD70000E8EF05F000EFCE
:100C180000F003500410D8B414EF06F016EF06F0F5
:100C28003AEF06F0010E056E1EEF06F0D890033677
:100C38000436052A04AE23EF06F025EF06F01AEF76
:100C480006F00350015C04500258D8A02EEF06F0BD
:100C580030EF06F034EF06F00350015E0450025AFC
:100C6800D89004320332052E25EF06F001C001F0BA
:100C780002C002F01200036E0D0E036446EF06F088
:100C880048EF06F04EEF06F0000E026E000E016E01
:100C980061EF06F0000EC26E0344E846FC0BC26E1C
:100CA800C280C282C2B25BEF06F05DEF06F056EF7B
:100CB80006F0C3CF01F0C4CF02F0120015C017F040
:100CC8006EEF06F014C009F0170E0A6E16C00BF08E
:100CD80004EC04F017C0F6FF080EF76E0800F55094
:100CE8000009D8A47AEF06F07CEF06F066EF06F06C
:100CF800000E156E000E146E12001A0E1C6E18C02F
:100D08001DF0000E216E000E206E000E286E000EE3
:100D1800276E1D0E146E19C015F01C0E166E62ECAF
:100D280006F018502024D96EDA6ADF6A1200A4EFA0
:100D380006F00250D96EDA6ADF50C1EC06F0022ADA
:100D48000250D96EDA6ADF50D8A4ADEF06F0AFEFE3
:100D580006F09DEF06F0120000EE60F0200EEE6A3D
:100D6800E806FDE100EE2DF0230EEE6AE806FDE14F
:100D7800000EF86E0001DBEF05F0016EACA2C7EFC4
:100D880006F0C9EF06F0C2EF06F001C0ADFF120091
:100D9800016E01C0C1FF000EC26E8F0EC06E120040
:020DA800120037
:020000040030CA
:0E000000210E191EFF8181FF0FC00FE00F407F
:00000001FF
