:04000000F9EF07F01D
:1008000000434C41564520434F525245435441000A
:10081000494E47524553415220434C4156450042B0
:1008200049454E56454E49444F2100494E434F528B
:070830005245435441000052
:10083800839E838C838A838883B625EF04F027EF11
:1008480004F040EF04F0200E016E2A0EE82EFED7C9
:10085800012EFCD783A633EF04F035EF04F02EEF1A
:1008680004F04E0E016EEB0EE82EFED7012EFCD7DB
:100878000000310E2DEF06F083B445EF04F047EF8A
:1008880004F060EF04F0200E016E2A0EE82EFED769
:10089800012EFCD783A453EF04F055EF04F04EEF7C
:1008A80004F04E0E016EEB0EE82EFED7012EFCD79B
:1008B8000000320E2DEF06F083B265EF04F067EF0B
:1008C80004F080EF04F0200E016E2A0EE82EFED709
:1008D800012EFCD783A273EF04F075EF04F06EEFDE
:1008E80004F04E0E016EEB0EE82EFED7012EFCD75B
:1008F8000000330E2DEF06F083B085EF04F087EF8C
:1009080004F0A0EF04F0200E016E2A0EE82EFED7A8
:10091800012EFCD783A093EF04F095EF04F08EEF3F
:1009280004F04E0E016EEB0EE82EFED7012EFCD71A
:100938000000410E2DEF06F0838E839C838A838806
:1009480083B6A9EF04F0ABEF04F0C4EF04F0200E77
:10095800016E2A0EE82EFED7012EFCD783A6B7EF2C
:1009680004F0B9EF04F0B2EF04F04E0E016EEB0E96
:10097800E82EFED7012EFCD70000340E2DEF06F02E
:1009880083B4C9EF04F0CBEF04F0E4EF04F0200ED9
:10099800016E2A0EE82EFED7012EFCD783A4D7EFCE
:1009A80004F0D9EF04F0D2EF04F04E0E016EEB0E16
:1009B800E82EFED7012EFCD70000350E2DEF06F0ED
:1009C80083B2E9EF04F0EBEF04F004EF05F0200E3A
:1009D800016E2A0EE82EFED7012EFCD783A2F7EF70
:1009E80004F0F9EF04F0F2EF04F04E0E016EEB0E96
:1009F800E82EFED7012EFCD70000360E2DEF06F0AC
:100A080083B009EF05F00BEF05F024EF05F0200E99
:100A1800016E2A0EE82EFED7012EFCD783A017EF11
:100A280005F019EF05F012EF05F04E0E016EEB0E12
:100A3800E82EFED7012EFCD70000420E2DEF06F05F
:100A4800838E838C839A838883B62DEF05F02FEFEE
:100A580005F048EF05F0200E016E2A0EE82EFED7AD
:100A6800012EFCD783A63BEF05F03DEF05F036EFEE
:100A780005F04E0E016EEB0EE82EFED7012EFCD7C8
:100A88000000370E2DEF06F083B44DEF05F04FEF61
:100A980005F068EF05F0200E016E2A0EE82EFED74D
:100AA800012EFCD783A45BEF05F05DEF05F056EF50
:100AB80005F04E0E016EEB0EE82EFED7012EFCD788
:100AC8000000380E2DEF06F083B26DEF05F06FEFE2
:100AD80005F088EF05F0200E016E2A0EE82EFED7ED
:100AE800012EFCD783A27BEF05F07DEF05F076EFB2
:100AF80005F04E0E016EEB0EE82EFED7012EFCD748
:100B08000000390E2DEF06F083B08DEF05F08FEF62
:100B180005F0A8EF05F0200E016E2A0EE82EFED78C
:100B2800012EFCD783A09BEF05F09DEF05F096EF13
:100B380005F04E0E016EEB0EE82EFED7012EFCD707
:100B48000000430E2DEF06F0838E838C838A8398F2
:100B580083B6B1EF05F0B3EF05F0CCEF05F0200E4A
:100B6800016E2A0EE82EFED7012EFCD783A6BFEF12
:100B780005F0C1EF05F0BAEF05F04E0E016EEB0E71
:100B8800E82EFED7012EFCD700002A0E2DEF06F026
:100B980083B4D1EF05F0D3EF05F0ECEF05F0200EAC
:100BA800016E2A0EE82EFED7012EFCD783A4DFEFB4
:100BB80005F0E1EF05F0DAEF05F04E0E016EEB0EF1
:100BC800E82EFED7012EFCD70000300E2DEF06F0E0
:100BD80083B2F1EF05F0F3EF05F00CEF06F0200E0D
:100BE800016E2A0EE82EFED7012EFCD783A2FFEF56
:100BF80005F001EF06F0FAEF05F04E0E016EEB0E70
:100C0800E82EFED7012EFCD70000230E2DEF06F0AC
:100C180083B011EF06F013EF06F02CEF06F0200E6C
:100C2800016E2A0EE82EFED7012EFCD783A01FEFF7
:100C380006F021EF06F01AEF06F04E0E016EEB0EED
:100C4800E82EFED7012EFCD70000440E2DEF06F04B
:100C5800000E12000F0EC112939093928A908A92FE
:100C680040EC08F035EC07F0000E0C6E000E0B6E31
:100C7800020E046E010ECCEC06F0100E056ED8ECD8
:100C880007F063EF06F01CEC04F00D6E0D50D8B4BD
:100C980050EF06F052EF06F063EF06F00B500E0F20
:100CA800D96EDA6A0DC0DFFF0B50020F046E020E18
:100CB800CCEC06F02A0E16EC08F00B4A0C2A0CBEF7
:100CC8006FEF06F00C5009E1040E0B5CD8A06FEF33
:100CD80006F071EF06F047EF06F00D0E0A6E2D0EC6
:100CE800096ED80EE82EFED7092EFCD70A2EFAD7A1
:100CF80049EC08F00E0E016E130E026E7BEC07F045
:100D080001500210D8A48BEF06F08DEF06F0AEEF7D
:100D180006F08A808A92020E046E010ECCEC06F070
:100D2800010E056ED8EC07F0020E046E020ECCEC34
:100D380006F01F0E056ED8EC07F07A0E0A6EC10E8B
:100D4800096E820EE82EFED7092EFCD70A2EFAD796
:100D5800C4EF06F08A828A90060E046E010ECCEC6F
:100D680006F0190E056ED8EC07F0040E046E020E9C
:100D7800CCEC06F02B0E056ED8EC07F0A1EF06F0D0
:100D88008A928A9049EC08F038EF06F000EF00F0FC
:100D9800056E0504D8A4D3EF06F0D5EF06F0E6EF0C
:100DA80006F004507F0F086E08380F0B066E0850C7
:100DB8000F0B076E065030EC08F0075030EC08F0C7
:100DC80034EF07F0020E0518D8A4EDEF06F0EFEFA8
:100DD80006F000EF07F00450BF0F086E08380F0B3D
:100DE800066E08500F0B076E065030EC08F00750DF
:100DF80030EC08F034EF07F0030E0518D8A407EF1D
:100E080007F009EF07F01AEF07F00450930F086E88
:100E180008380F0B066E08500F0B076E065030ECA3
:100E280008F0075030EC08F034EF07F0040E05180E
:100E3800D8A421EF07F023EF07F034EF07F00450B0
:100E4800D30F086E08380F0B066E08500F0B076E8D
:100E5800065030EC08F0075030EC08F034EF07F09B
:100E68001200939493969398939A939C939E000E52
:100E7800AAEC07F0020E056E380E046EAD0EE82ED1
:100E8800FED7042EFCD7052EFAD70000030E30EC4F
:100E980008F04E0E046EEB0EE82EFED7042EFCD79B
:100EA8000000030E30EC08F0AC0E046E6C0EE82E59
:100EB800FED7042EFCD700D0030E30EC08F0020E4B
:100EC80030EC08F0020E30EC08F0080E30EC08F0B8
:100ED800000E30EC08F00C0E30EC08F0000E30EC90
:100EE80008F0060E30EC08F049EC08F012007FEF2D
:100EF80007F0012A022A0250D96EDA6A0150E16E1F
:100F0800E26ADE50E618D8A48CEF07F08EEF07F0FF
:100F180099EF07F00150D96EDA6ADF50D8A497EF3D
:100F280007F099EF07F07DEF07F00150D96EDA6A04
:100F3800DF50036E0250D96EDA6ADF50046E045037
:100F4800035C016E026AD8A002061200016E01A0BD
:100F5800B0EF07F0B2EF07F0B5EF07F08A88B6EF09
:100F680007F08A9801A2BBEF07F0BDEF07F0C0EFCA
:100F780007F08A8AC1EF07F08A9A01A4C6EF07F042
:100F8800C8EF07F0CBEF07F08A8CCCEF07F08A9C0C
:100F980001A6D1EF07F0D3EF07F0D6EF07F08A8E5E
:100FA800D7EF07F08A9E1200000E086E000E076E3B
:100FB800E9EF07F005500724066E06C0F6FF0800A3
:100FC800F55016EC08F0074A082A05500724066E63
:100FD80006C0F6FF0800F5500009D8A4F6EF07F0A0
:100FE800F8EF07F0DEEF07F01200A00EF66E100E15
:100FF800F76E000EF86E00EE13F010EE05F0090023
:10100800F5CFEEFFE550E150FAE1126A116A106A75
:101018000F6A0E6A0D6A000EF86E080EF76E000170
:101028002EEF06F0046E04500F0B026E0450F00B06
:10103800036E8A8403380F0BAAEC07F08A86A00E89
:10104800E82EFED78A960250AAEC07F08A86A00EF0
:10105800E82EFED78A961200036E8A940350AAECF3
:1010680007F08A863F0E026E550EE82EFED7022E36
:10107800FCD700008A961200959E959C959A9598A3
:1010880095869584958295801200000E30EC08F0C4
:0D109800010E30EC08F0120030383131004C
:020000040020DA
:08000000FFFFFFFFFFFFFFFF00
:020000040030CA
:0E000000210E191EFF8181FF0FC00FE00F407F
:00000001FF
