:0400000007EF00F016
:0A0008003C829BED05F00FEF06F0BF
:100800000000000E166E14BE0AEF04F008EF04F0AC
:1008100014EF04F0141E131E121E116C000E12228F
:1008200013221422010E166E10BE1BEF04F019EFF6
:1008300004F025EF04F0101E0F1E0E1E0D6C000EAE
:100840000E220F221022010E161A000E176E000E35
:10085000186E000E196E000E1A6E11501210131041
:100860001410D8B436EF04F038EF04F06EEF04F053
:10087000010E156E42EF04F0D89011361236133681
:100880001436152A14AE47EF04F049EF04F03CEF9C
:1008900004F0D8901736183619361A3611500D5CF8
:1008A00012500E5813500F5814501058D8A05BEF28
:1008B00004F05DEF04F066EF04F011500D5E12508D
:1008C0000E5A13500F5A1450105A1780D8901432E1
:1008D000133212321132152E49EF04F01650D8B4EB
:1008E00074EF04F076EF04F07EEF04F01A1E191E88
:1008F000181E176C000E182219221A2217C00DF0AC
:1009000018C00EF019C00FF01AC010F01200000E3F
:10091000066E04BE90EF04F08EEF04F096EF04F044
:10092000036C041ED8B0042A010E066E02BE9DEFB1
:1009300004F09BEF04F0A3EF04F0016C021ED8B0AA
:10094000022A010E061A000E086E000E076E0350F2
:100950000410D8B4AEEF04F0B0EF04F0D8EF04F018
:10096000010E056EB8EF04F0D89003360436052A60
:1009700004AEBDEF04F0BFEF04F0B4EF04F0D89084
:10098000073608360350015C04500258D8A0CBEF5C
:1009900004F0CDEF04F0D2EF04F00350015E0450F8
:1009A000025A0780D89004320332052EBFEF04F0BC
:1009B0000650D8B4DEEF04F0E0EF04F0E4EF04F00A
:1009C000076C081ED8B0082A07C001F008C002F062
:1009D00012000E0E1AEC06F002EC06F0000ECEEC41
:1009E00005F001C02FF002C030F02FC01BF030C066
:1009F0001CF0000E1CBEFF0E1D6E1E6E000E1F6E44
:100A0000000E206E000E216E000E226EFF0E236E71
:100A1000030E246E000E256E000E266E000E276E4D
:100A2000000E286E000E296E000E2A6EB40E2B6E7C
:100A3000000E2C6E000E2D6E000E2E6E29EC05F0B1
:100A40001B50316E3150F1EC05F0EEEF04F007EF82
:100A500000F01F501B5C016E20501C58026E21508C
:100A60001D58036E22501E58046E27502B5C056ED5
:100A700028502C58066E29502D58076E2A502E5893
:100A8000086E66EC05F001C00DF002C00EF003C068
:100A90000FF004C010F01F50235C116E205024583A
:100AA000126E21502558136E22502658146E01ECF8
:100AB00004F027500D241B6E28500E201C6E295068
:100AC0000F201D6E2A5010201E6E1200000E096E9F
:100AD000000E0A6E000E0B6E000E0C6E01A073EF7E
:100AE00005F075EF05F07DEF05F00550092606507D
:100AF0000A2207500B2208500C22D89005360636E1
:100B000007360836D89004320332023201320150DF
:100B1000021003100410D8A490EF05F092EF05F036
:100B20006EEF05F009C001F00AC002F00BC003F03F
:100B30000CC004F012000600F2A4A1EF05F0A3EF30
:100B400005F0CCEF05F0010E3A243A6E000E3B2082
:100B50003B6EEB0E3A5C010E3B58D8A0B2EF05F0AD
:100B6000B4EF05F0B8EF05F0000E3B6E000E3A6EE4
:100B700032503A5C000E3B58D8B0C1EF05F0C3EFDD
:100B800005F0C6EF05F08C80C7EF05F08C90000EE5
:100B9000D76E320ED66EF2943C921100036E0D0E9B
:100BA0000364D5EF05F0D7EF05F0DDEF05F0000E9B
:100BB000026E000E016EF0EF05F0000EC26E0344EF
:100BC000E846FC0BC26EC280C282C2B2EAEF05F0F8
:100BD000ECEF05F0E5EF05F0C3CF01F0C4CF02F074
:100BE0001200096E09502E0DF3CF01F0F4CF02F080
:100BF000000E046EB40E036E87EC04F001500E0F6D
:100C0000326E120095908C90F28EF28AF294500E11
:100C1000D56ED58E000ED76E320ED66E120000EE57
:100C200032F00A0EEE6AE806FDE13C903C920001CB
:100C3000E9EF04F0016E01C0C1FF000EC26E8F0E1D
:040C4000C06E120070
:020000040030CA
:0E000000210E191EFF8181FF0FC00FE00F407F
:00000001FF
