:04000000C6EF06F051
:1008000000414443204348303A2025752C20414480
:0D08100043204348313A2025750D0A0000B1
:10081E000A50D96EDA6ADFCFF6FF080EF76E0800BF
:10082E00F550250AD8A41EEF04F020EF04F0BCEF1B
:10083E0004F00A50D96EDA6ADF2A000E326E000E0C
:10084E00316E31C035F0336834680A50D96EDA6AC9
:10085E00DF50126E12C0F6FF080EF76E0800F5504C
:10086E00750AD8A43DEF04F03FEF04F0B6EF04F0A4
:10087E000B50D96EDA6A020EDF26DF5CD96EDA6AA9
:10088E00DECF0EF0DECF0FF00A50D96EDA6A1228E4
:10089E00DF6EA0EF04F0200E136E13061350600FE0
:1008AE00D96EDA6A0EC001F00FC002F0000E046EAF
:1008BE000A0E036E23EC06F00150300FDF6E0EC0F1
:1008CE0001F00FC002F0000E046E0A0E036EB2ECC1
:1008DE0005F001C00EF002C00FF00E500F10D8B48C
:1008EE007BEF04F07DEF04F095EF04F01350D8A4E5
:1008FE0083EF04F085EF04F054EF04F095EF04F06D
:10090E001350600FD96EDA6ADF500C6E0C50016E08
:10091E00026A09C003F0CEEC04F0132A200E13185D
:10092E00D8A49CEF04F09EEF04F087EF04F0CDEF17
:10093E0004F012C0F6FF080EF76E0800F5500C6EAC
:10094E000D6A0D50000AD8B4AFEF04F0B6EF04F004
:10095E000C50750AD8B452EF04F0B6EF04F00A50FA
:10096E00D96EDA6ADF2ACDEF04F00A50D96EDA6A50
:10097E00DFCFF6FF080EF76E0800F550016E026A23
:10098E0009C003F0CEEC04F0B6EF04F012000350F1
:10099E00D8B4D4EF04F0D6EF04F0DEEF04F0035039
:1009AE00D8A4DCEF04F0DEEF04F0E3EF04F0015026
:1009BE00EAEC06F022EF05F00350D96EDA6A0A0E61
:1009CE00D926DE50DE10D8B4EFEF04F0F1EF04F0CC
:1009DE000AEF05F00350D96EDA6A0A0ED9260350D3
:1009EE00E16EE26A030EE126DE50E65CE650800A16
:1009FE00086EDE50800A0858D8B008EF05F00AEFEE
:100A0E0005F022EF05F00350D96EDA6A030ED926EF
:100A1E00DF50046E0350D96EDA6ADF500424D96EAB
:100A2E00DA6A01C0DFFF0350D96EDA6A030ED926E7
:100A3E00DE2A000EDD221200000E096E000E0A6E76
:100A4E00000E0B6E000E0C6E0550061007100810EF
:100A5E00D8B434EF05F036EF05F06CEF05F0010E6B
:100A6E000D6E40EF05F0D89005360636073608367F
:100A7E000D2A08AE45EF05F047EF05F03AEF05F009
:100A8E00D89009360A360B360C360550015C0650E6
:100A9E0002580750035808500458D8A059EF05F0D3
:100AAE005BEF05F064EF05F00550015E0650025A4B
:100ABE000750035A0850045A0980D890083207325A
:100ACE00063205320D2E47EF05F009C001F00AC0BF
:100ADE0002F00BC003F00CC004F012000D0EE2EC9D
:100AEE0006F0800E0E6E250E0F6E000E106E000EAE
:100AFE00116EECEC05F0000E55EC06F001C02DF079
:100B0E0002C02EF0010E55EC06F001C02FF002C00F
:100B1E0030F0360E186E010E196E2DC01AF02EC062
:100B2E001BF02FC01CF030C01DF097EC06F0360EF7
:100B3E00026EB1EC06F0070E2C6E170E2B6E6A0EBF
:100B4E00E82EFED72B2EFCD72C2EFAD700D082EF14
:100B5E0005F000EF00F0000E066E000E056E03505D
:100B6E000410D8B4BDEF05F0BFEF05F0E7EF05F0C8
:100B7E00010E076EC7EF05F0D89003360436072A2C
:100B8E0004AECCEF05F0CEEF05F0C3EF05F0D89034
:100B9E00053606360350015C04500258D8A0DAEF31
:100BAE0005F0DCEF05F0E1EF05F00350015E0450B7
:100BBE00025A0580D89004320332072ECEEF05F08C
:100BCE0005C001F006C002F01200949C948E240E13
:100BDE00AC6E900EAB6E000EB86EB886000E016E47
:100BEE006C0E026EDC0E036E020E046E0EC012F060
:100BFE000FC013F010C014F011C015F0020ED890F3
:100C0E001236133614361536E82E06EF06F012C0DD
:100C1E0005F013C006F014C007F015C008F023EC61
:100C2E0005F0FF0E0124166EFF0E0220176E16C081
:100C3E00AFFF1750B06E120003500410D8B42AEF55
:100C4E0006F02CEF06F050EF06F0010E056E34EFB5
:100C5E0006F0D89003360436052A04AE39EF06F0B6
:100C6E003BEF06F030EF06F00350015C04500258E3
:100C7E00D8A044EF06F046EF06F04AEF06F0035018
:100C8E00015E0450025AD89004320332052E3BEF17
:100C9E0006F001C001F002C002F01200036E0D0E4C
:100CAE0003645CEF06F05EEF06F064EF06F0000EF4
:100CBE00026E000E016E77EF06F0000EC26E034458
:100CCE00E846FC0BC26EC280C282C2B271EF06F061
:100CDE0073EF06F06CEF06F0C3CF01F0C4CF02F055
:100CEE00120015C017F084EF06F014C009F0170EAD
:100CFE000A6E16C00BF00FEC04F017C0F6FF080ECC
:100D0E00F76E0800F5500009D8A490EF06F092EFA8
:100D1E0006F07CEF06F0000E156E000E146E12003B
:100D2E001A0E1E6E18C01FF0000E236E000E226EDD
:100D3E00000E2A6E000E296E1F0E146E19C015F0CD
:100D4E001E0E166E78EC06F018502224D96EDA6A52
:100D5E00DF6A1200BAEF06F00250D96EDA6ADF507F
:100D6E00D7EC06F0022A0250D96EDA6ADF50D8A408
:100D7E00C3EF06F0C5EF06F0B3EF06F0120000EE7B
:100D8E0060F0200EEE6AE806FDE100EE31F0230E73
:100D9E00EE6AE806FDE1000EF86E000175EF05F053
:100DAE00016EACA2DDEF06F0DFEF06F0D8EF06F035
:100DBE0001C0ADFF1200016E01C0C1FF000EC26E78
:080DCE008F0EC06E120012002E
:020000040030CA
:0E000000210E191EFF8181FF0FC00FE00F407F
:00000001FF
