:04000000C7EF10F046
:100800000053656E736F722048432D53523034008D
:10081000446973743A200020636D00004450800BDB
:100820004D6E445044244F6E43AE19EF04F01BEF5D
:1008300004F01CEF04F04F804F50D8B422EF04F0C6
:1008400024EF04F039EF04F04F28D8A42AEF04F085
:100850002CEF04F034EF04F0000E416E000E426EF7
:10086000000E436E000E446E438E000E446E41EF48
:1008700004F0000E416E000E426E000E436E000E3C
:10088000446E4850800B4E6E4D504E18D8B44BEF0E
:1008900004F04DEF04F04EEF04F04D8C4850482426
:1008A0004E6E47AE56EF04F058EF04F059EF04F0E7
:1008B0004E804E50D8B45FEF04F061EF04F076EF55
:1008C00004F04E28D8A467EF04F069EF04F071EF4C
:1008D00004F0000E456E000E466E000E476E000ED0
:1008E000486E478E000E486E7EEF04F0000E456E97
:1008F000000E466E000E476E000E486E4F504E5C66
:10090000D8B085EF04F087EF04F0AEEF04F04DAC03
:100910008CEF04F08EEF04F090EF04F0800E4D1A8F
:100920004FC050F04EC04FF050C04EF041C050F09C
:1009300045C041F050C045F042C050F046C042F0C2
:1009400050C046F043C050F047C043F050C047F09D
:1009500044C050F048C044F050C048F0000E506E03
:100960004F504EC049F04A6A495E000E4A5A4ABE8C
:10097000C3EF04F04A5009E11A0E495CD8A0C3EF56
:1009800004F0C5EF04F0FCEF04F0415042104310B6
:100990004410D8A4CEEF04F0D1EF04F0010ED2EF52
:1009A00004F0000E506E000E416E000E426E000EFE
:1009B000436E000E446E4EC04FF005EF05F050A0A0
:1009C000E4EF04F0E6EF04F0ECEF04F0D8905030E0
:1009D0000109506EEEEF04F0D890503241A0F3EFD1
:1009E00004F0F5EF04F0F6EF04F0508E4434443296
:1009F0004332423241324F2A4E504F5CD8A003EF6F
:100A000005F005EF05F0DFEF04F04DBC0AEF05F04F
:100A10000CEF05F04CEF05F04F50D8A412EF05F0A5
:100A200014EF05F01EEF05F0000E416E000E426E51
:100A3000000E436E000E446E6DEF06F045504126E9
:100A400046504222475043224850442244A02BEFB4
:100A500005F02DEF05F0D9EF05F050A032EF05F0CD
:100A600034EF05F03AEF05F0D89050300109506EA0
:100A70003CEF05F0D890503241A041EF05F043EF34
:100A800005F044EF05F0508E443444324332423294
:100A900041324F2AD9EF05F04550415C465042584B
:100AA000475043584450800A496E4850800A49587C
:100AB000D8B05DEF05F05FEF05F08AEF05F041502B
:100AC000455C496E425046584A6E435047584B6EFB
:100AD000445048584C6EFF0E4924416EFF0E4A2088
:100AE000426EFF0E4B20436EFF0E4C20446E800E74
:100AF0004D1A506C5050D8A480EF05F082EF05F0ED
:100B000092EF05F0010E4126000E422243224422BC
:100B100092EF05F04550415E4650425A4750435AC5
:100B20004850445A4150421043104410D8A49BEFFF
:100B300005F09DEF05F0D2EF05F05050D8A4A3EFDB
:100B400005F0A5EF05F0D2EF05F0000E416E000EA6
:100B5000426E000E436E000E446E6DEF06F0D890AC
:100B6000413642364336443650AEB9EF05F0BBEF5E
:100B700005F0BCEF05F0418050A0C1EF05F0C3EFD8
:100B800005F0C7EF05F0D8805036C9EF05F0D890D2
:100B900050364F50D8B4CFEF05F0D1EF05F0D2EF7B
:100BA00005F04F0643AED7EF05F0D9EF05F0AFEFF4
:100BB00005F0000E4E6E50AEE0EF05F0E2EF05F0EE
:100BC000FAEF05F050C049F07F0E4916D8B4EBEFAC
:100BD00005F0EDEF05F0F1EF05F0010E4E6EFAEFC6
:100BE00005F041A0F6EF05F0F8EF05F0FAEF05F09B
:100BF000EDEF05F04E50D8B400EF06F002EF06F02E
:100C00002DEF06F0010E4126000E4222432244221F
:100C100044A00DEF06F00FEF06F02DEF06F041C0F7
:100C200049F042C04AF043C04BF044C04CF04C3451
:100C30004C324B324A32493249C041F04AC042F04C
:100C40004BC043F04CC044F04F28D8B42AEF06F014
:100C50002CEF06F02DEF06F04F2A4F28D8B433EFD3
:100C600006F035EF06F03DEF06F04F50D8A43BEF0D
:100C700006F03DEF06F04FEF06F0000E416E000E5D
:100C8000426E000E436E000E446E4F50D8A44BEFE0
:100C900006F04DEF06F04FEF06F0000E4D6E4FA040
:100CA00054EF06F056EF06F059EF06F0438E5AEF78
:100CB00006F0439ED8904F30446E4DAE62EF06F082
:100CC00064EF06F065EF06F0448E41C041F042C08B
:100CD00042F043C043F044C044F01200010E5E24D1
:100CE00000017A6F7B6B000E7B23000E7F6F000E7E
:100CF0007E6F5CBE80EF06F07EEF06F098EF06F0A8
:100D00005D50D96EDA6A2D0EDF6E5D2A59C001F092
:100D10005AC002F05BC003F05CC004F081EC10F03C
:100D200001C059F002C05AF003C05BF004C05CF08F
:100D3000000E016E000E026E000E036E000E046EB9
:100D400059C005F05AC006F05BC007F05CC008F05F
:100D5000C9EC0DF0D8B0AFEF06F0B1EF06F009EF37
:100D600007F0D1EF06F059C00FF05AC010F05BC089
:100D700011F05CC012F0000E136E000E146E200E07
:100D8000156E410E166E8AEC08F00FC059F010C0B7
:100D90005AF011C05BF012C05CF000017E07D8A0D1
:100DA0007F0759C001F05AC002F05BC003F05CC07D
:100DB00004F0000E056E000E066E800E076E3F0EEC
:100DC000086EC9EC0DF0D8A0E8EF06F0EAEF06F0E7
:100DD000B3EF06F009EF07F059C028F05AC029F028
:100DE0005BC02AF05CC02BF0000E2C6E000E2D6E46
:100DF000200E2E6E410E2F6E9FEC0AF028C059F087
:100E000029C05AF02AC05BF02BC05CF000017E4B79
:100E10007F2B59C001F05AC002F05BC003F05CC0E8
:100E200004F0000E056E000E066E200E076E410ED9
:100E3000086EC9EC0DF0D8B020EF07F022EF07F0F4
:100E4000ECEF06F000017E517A257A6F7F517B210D
:100E50007B6F000E7D6F010E7C6F7CC001F07DC04A
:100E600002F0000E02BEFF0E036E046E010E6CEC6B
:100E70000CF001C076F002C077F003C078F004C037
:100E800079F060EF07F076C028F077C029F078C0DD
:100E90002AF079C02BF0000E2C6E000E2D6E200E65
:100EA0002E6E410E2F6E9FEC0AF028C076F029C0FE
:100EB00077F02AC078F02BC079F000017C4B7D2BB5
:100EC00000017A517C5D7D51800A5F6E7B51800A02
:100ED0005F58D8A06EEF07F070EF07F043EF07F010
:100EE00059C041F05AC042F05BC043F05CC044F0CE
:100EF000000E2C6E000E2D6E000E2E6E400E2F6E0C
:100F000076C028F077C029F078C02AF079C02BF09D
:100F10009FEC0AF028C045F029C046F02AC047F0EF
:100F20002BC048F00EEC04F041C059F042C05AF01A
:100F300043C05BF044C05CF059C001F05AC002F0FD
:100F40005BC003F05CC004F0000E056E000E066E80
:100F5000200E076E410E086EC9EC0DF0D8A0B3EF5D
:100F600007F0B5EF07F0C0EF07F0000E596E000E66
:100F70005A6E800E5B6E3F0E5C6E00017E4B7F2BC7
:100F800000017FBFC8EF07F0C6EF07F0FDEF07F0E5
:100F90005D50D96EDA6A300EDF6E5D2A5D50D96E13
:100FA000DA6A2E0EDF6E5D2A7BBFDBEF07F0D9EF2A
:100FB00007F0E1EF07F07A517E5D7E6F7B517F593C
:100FC0007F6F7C697D69EEEF07F05D50D96EDA6A5C
:100FD000300EDF6E5D2A7C07D8A07D077C517E5DD8
:100FE0007F51800A5F6E7D51800A5F58D8A0FBEF69
:100FF00007F0FDEF07F0E5EF07F0000E7D6F000E44
:101000007C6F76EF08F059C001F05AC002F05BC067
:1010100003F05CC004F046EC0DF001C074F002C0B7
:1010200075F05D50D96EDA6A00017451300FDF6ED1
:101030005D2A7E517C1907E17F517D19D8A423EFE9
:1010400008F025EF08F02BEF08F05D50D96EDA6A52
:101050002E0EDF6E5D2A59C051F05AC052F05BC0AF
:1010600053F05CC054F074C001F075C002F0000E83
:1010700002BEFF0E036E046E010E6CEC0CF001C09C
:1010800076F002C077F003C078F004C079F076C043
:1010900055F077C056F078C057F079C058F05EEC44
:1010A00010F051C059F052C05AF053C05BF054C018
:1010B0005CF059C00FF05AC010F05BC011F05CC07A
:1010C00012F0000E136E000E146E200E156E410EFF
:1010D000166E8AEC08F00FC059F010C05AF011C01B
:1010E0005BF012C05CF000017C4B7D2B7A517C5D83
:1010F0007D51800A5F6E7B51800A5F58D8A083EFD4
:1011000008F085EF08F003EF08F05D50D96EDA6A59
:10111000DF6A12001250800B1B6E12501224216ED7
:1011200011AE95EF08F097EF08F098EF08F02180E6
:101130002150D8B49EEF08F0A0EF08F0B3EF08F00C
:101140002128D8A4A6EF08F0A8EF08F0B0EF08F027
:10115000000E0F6E000E106E000E116E000E126E5D
:10116000118EBBEF08F0000E0F6E000E106E000E19
:10117000116E000E126E1650800B1B1A165016249C
:10118000206E15AEC6EF08F0C8EF08F0C9EF08F002
:1011900020802050D8B4CFEF08F0D1EF08F0E4EF72
:1011A00008F02028D8A4D7EF08F0D9EF08F0E1EF35
:1011B00008F0000E136E000E146E000E156E000E79
:1011C000166E158EECEF08F0000E136E000E146E06
:1011D000000E156E000E166E2050D8B4F2EF08F017
:1011E000F4EF08F0FCEF08F02150D8A4FAEF08F073
:1011F000FCEF08F006EF09F0000E0F6E000E106E07
:10120000000E116E000E126E9EEF0AF015500F02C6
:10121000F3CF26F0F4CF27F026501C6E1D6A1E6A0D
:101220001F6A2750226E236A246A256A145010020E
:10123000F3CF26F0F4CF27F026501C26000E1D22F7
:101240001E221F2227502226000E2322242225227E
:1012500013501102F3CF26F0F4CF27F026501C26AE
:10126000000E1D221E221F2227502226000E23229E
:10127000242225221EC01FF01DC01EF01CC01DF020
:101280001C6A13501002F3CF26F0F4CF27F026503B
:101290001C2627501D22000E1E22000E1F22145055
:1012A0000F02F3CF26F0F4CF27F026501C2627504C
:1012B0001D22000E1E22000E1F221EC01FF01DC088
:1012C0001EF01CC01DF01C6A13500F02F3CF26F055
:1012D000F4CF27F026501C2627501D22000E1E2278
:1012E000000E1F2215501002F3CF26F0F4CF27F086
:1012F0002650222627502322000E2422000E2522CB
:1013000014501102F3CF26F0F4CF27F026502226F6
:1013100027502322000E2422000E252215501102F0
:10132000F3CF26F0F4CF27F02650176E2750186E13
:10133000196A1A6A19C01AF018C019F017C018F003
:10134000176A1750222618502322195024221A50A7
:1013500025221CC017F01DC018F01EC019F01FC0B8
:101360001AF0190EB9EF09F0D8901A321932183262
:101370001732E82EB4EF09F0175022261850232216
:10138000195024221A5025221EC01FF01DC01EF025
:101390001CC01DF01C6A205021C017F0186A1726C7
:1013A000000E1822820E1724266EFF0E1820276EBC
:1013B000EFEF09F0D89022362336243625361FAEBB
:1013C000E4EF09F0E6EF09F0E7EF09F02280D890AA
:1013D0001C361D361E361F362606D8A0270624AE1C
:1013E000F4EF09F0F6EF09F0DAEF09F0000E206EE5
:1013F0001FAEFDEF09F0FFEF09F023EF0AF0FF0E3B
:101400001C14176EFF0E1D14186EFF0E1E14196E9D
:101410007F0E1F141A6E1750181019101A10D8B416
:1014200014EF0AF016EF0AF01AEF0AF0010E206E20
:1014300023EF0AF022A01FEF0AF021EF0AF023EFBA
:101440000AF016EF0AF02050D8B429EF0AF02BEF7B
:101450000AF04FEF0AF0010E2226000E232224226A
:10146000252225A036EF0AF038EF0AF04FEF0AF0F8
:1014700022C017F023C018F024C019F025C01AF0BC
:101480001A341A3219321832173217C022F018C023
:1014900023F019C024F01AC025F0264A272A27BEB7
:1014A0005AEF0AF0275008E12628D8A05AEF0AF090
:1014B0005CEF0AF066EF0AF0000E226E000E236E5B
:1014C000800E246E7F0E256E94EF0AF027BE73EF18
:1014D0000AF0275006E12604D8B071EF0AF073EF46
:1014E0000AF07FEF0AF0000E226E000E236E000E4F
:1014F000246E000E256E000E1B6E94EF0AF026C0BF
:1015000021F0FF0E2216FF0E23167F0E2416000E6A
:10151000251621A08EEF0AF090EF0AF091EF0AF065
:10152000248ED8902130256E1B50251222C00FF03A
:1015300023C010F024C011F025C012F012002B506F
:10154000800B386E2B502B243F6E2AAEAAEF0AF088
:10155000ACEF0AF0ADEF0AF03F803F50D8B4B3EFE4
:101560000AF0B5EF0AF0CAEF0AF03F28D8A4BBEFA3
:101570000AF0BDEF0AF0C5EF0AF0000E286E000E6B
:10158000296E000E2A6E000E2B6E2A8E000E2B6E18
:10159000D2EF0AF0000E286E000E296E000E2A6EA1
:1015A000000E2B6E2F50800B381A2F502F24406EB8
:1015B0002EAEDDEF0AF0DFEF0AF0E0EF0AF0408038
:1015C0004050D8B4E6EF0AF0E8EF0AF0FDEF0AF079
:1015D0004028D8A4EEEF0AF0F0EF0AF0F8EF0AF096
:1015E000000E2C6E000E2D6E000E2E6E000E2F6E55
:1015F0002E8E000E2F6E05EF0BF0000E2C6E000EDF
:101600002D6E000E2E6E000E2F6E2C502D102E10F3
:101610002F10D8A40EEF0BF010EF0BF028EF0BF00B
:10162000000E286E000E296E000E2A6E000E2B6E24
:10163000800E2A127F0E2B1238502B1228C028F051
:1016400029C029F02AC02AF02BC02BF06BEF0CF038
:101650003F50D8A42EEF0BF030EF0BF03AEF0BF029
:10166000000E286E000E296E000E2A6E000E2B6EE4
:101670006BEF0CF040503FC030F0316A305E000E2E
:10168000315A7F0E3024396E000E31203A6E28C058
:1016900034F029C035F02AC036F02BC037F0000EE8
:1016A000286E000E296E000E2A6E000E2B6E000EA4
:1016B0003B6E000E3C6E000E3D6E000E3E6E000E48
:1016C000406E9BEF0BF04050D8B469EF0BF06BEF1E
:1016D0000BF082EF0BF0D89034363536363637368D
:1016E000D890283629362A362B363EAE7AEF0BF0C4
:1016F0007CEF0BF07DEF0BF02880D8903B363C362A
:101700003D363E362C50345C2D5035582E503658D0
:101710002F503758D8A08FEF0BF091EF0BF09AEFC6
:101720000BF03E8C2C50345E2D50355A2E50365ACC
:101730002F50375A402A190E4064A1EF0BF0A3EF47
:101740000BF063EF0BF03450351036103710D8B46F
:10175000ACEF0BF0AEEF0BF0C6EF0BF03B80C6EF3B
:101760000BF0D890283629362A362B363EAEBBEF02
:101770000BF0BDEF0BF0BEEF0BF02880D8903B369E
:101780003C363D363E363906D8A03A062AAECBEF77
:101790000BF0CDEF0BF0B1EF0BF0000E406E3EAE54
:1017A000D4EF0BF0D6EF0BF0FAEF0BF0FF0E3B147B
:1017B000306EFF0E3C14316EFF0E3D14326E7F0E04
:1017C0003E14336E3050311032103310D8B4EBEF7A
:1017D0000BF0EDEF0BF0F1EF0BF0010E406EFAEFB6
:1017E0000BF028A0F6EF0BF0F8EF0BF0FAEF0BF090
:1017F000EDEF0BF04050D8B400EF0CF002EF0CF01E
:1018000026EF0CF0010E2826000E29222A222B2278
:101810002BA00DEF0CF00FEF0CF026EF0CF028C012
:1018200030F029C031F02AC032F02BC033F033340D
:10183000333232323132303230C028F031C029F008
:1018400032C02AF033C02BF0394A3A2A3ABE31EF7F
:101850000CF03A5008E13928D8A031EF0CF033EF02
:101860000CF03EEF0CF0000E3A6E3968000E286E58
:10187000000E296E000E2A6E000E2B6E3ABE4BEF44
:101880000CF03A5006E13904D8B049EF0CF04BEFB8
:101890000CF059EF0CF0000E3A6E000E396E000E8F
:1018A000286E000E296E000E2A6E000E2B6E000EA2
:1018B000386E39C03FF03FA060EF0CF062EF0CF0E3
:1018C00065EF0CF02A8E66EF0CF02A9ED8903F3020
:1018D0002B6E1CEF0BF01200096E0950D8B473EF99
:1018E0000CF075EF0CF097EF0CF004BE7CEF0CF0F1
:1018F0007AEF0CF097EF0CF001C005F002C006F093
:1019000003C007F004C008F0051E061E071E081ECF
:10191000052A000E06220722082205C00BF006C089
:101920000CF007C00DF008C00EF09FEF0CF001C0E6
:101930000BF002C00CF003C00DF004C00EF001501B
:10194000021003100410D8A4A8EF0CF0AAEF0CF0BA
:10195000B4EF0CF0000E016E000E026E000E036E6E
:10196000000E046E45EF0DF0960E0A6EBEEF0CF001
:101970000A2AD8900E320D320C320B32000E0B14A4
:10198000056E000E0C14066E000E0D14076EFE0E92
:101990000E14086E0550061007100810D8A4D3EFD7
:1019A0000CF0D5EF0CF0B8EF0CF0E3EF0CF00A2AD6
:1019B000010E0B26000E0C220D220E22D8900E32A4
:1019C0000D320C320B32000E0B14056E000E0C148F
:1019D000066E000E0D14076EFF0E0E14086E0550F5
:1019E000061007100810D8A4F8EF0CF0FAEF0CF06E
:1019F000D7EF0CF002EF0DF00A06D8900B360C363C
:101A00000D360E360DBE07EF0DF009EF0DF011EF9C
:101A10000DF0020E0A600FEF0DF011EF0DF0FCEF6C
:101A20000CF00AB016EF0DF018EF0DF019EF0DF0F5
:101A30000D9ED8900A320AC005F0066A076A086A45
:101A400005C008F0076A066A056A05500B120650C1
:101A50000C1207500D1208500E120950D8B433EF73
:101A60000DF035EF0DF03DEF0DF004BE3CEF0DF045
:101A70003AEF0DF03DEF0DF00E8E0BC001F00CC0F3
:101A800002F00DC003F00EC004F012000334043461
:101A90000A6E0A50D8A44FEF0DF051EF0DF05BEF36
:101AA0000DF0000E016E000E026E000E036E000EB1
:101AB000046EC8EF0DF001C005F002C006F003C0CF
:101AC00007F004C008F0200E6BEF0DF0D89008323C
:101AD000073206320532E82E66EF0DF00550096E2A
:101AE000038EFF0E0116FF0E0216FF0E0316000EE8
:101AF0000416960E0A5E0ABE82EF0DF080EF0DF01E
:101B000098EF0DF00A50800A970FD8B08AEF0DF0C9
:101B10008CEF0DF08EEF0DF051EF0DF0D8900432F8
:101B20000332023201320A3E8EEF0DF0B0EF0DF0BB
:101B30001F0E0A649EEF0DF0A0EF0DF0A8EF0DF060
:101B400051EF0DF0D89001360236033604360A06FE
:101B50000A50D8A4AEEF0DF0B0EF0DF0A2EF0DF0EB
:101B60000950D8B4B6EF0DF0B8EF0DF0C0EF0DF09E
:101B7000041E031E021E016C000E02220322042218
:101B800001C001F002C002F003C003F004C004F081
:101B90001200000E0114096E000E02140A6E800E6F
:101BA00003140B6E7F0E04140C6E09500A100B10F8
:101BB0000C10D8A4DEEF0DF0E0EF0DF0E8EF0DF023
:101BC000000E016E000E026E000E036E000E046E1B
:101BD000000E0514096E000E06140A6E800E07141E
:101BE0000B6E7F0E08140C6E09500A100B100C10AF
:101BF000D8A4FDEF0DF0FFEF0DF007EF0EF0000E93
:101C0000056E000E066E000E076E000E086E04AE26
:101C10000CEF0EF00EEF0EF017EF0EF0016C021E3F
:101C2000D8B0022A031ED8B0032A800E045608AE8C
:101C30001CEF0EF01EEF0EF027EF0EF0056C061EE7
:101C4000D8B0062A071ED8B0072A800E0856000E04
:101C5000011A000E021A000E031A800E041A000E5A
:101C6000051A000E061A000E071A800E081A0550F3
:101C7000015C065002580750035808500458D8B069
:101C800044EF0EF046EF0EF049EF0EF0D8904AEF19
:101C90000EF0D88012008A84280EE82EFED78A948F
:101CA00081A655EF0EF057EF0EF050EF0EF0000E3C
:101CB000CF6E000ECE6E81B660EF0EF062EF0EF0CA
:101CC0005BEF0EF0CECF51F0526ACFCF4FF0506A9B
:101CD000810E136E960E146E2E0E156E3A0E166E43
:101CE0004F50466E456A515045265250462245C0D7
:101CF00001F046C002F0036A046A000E6CEC0CF0BE
:101D000001C00FF002C010F003C011F004C012F0C7
:101D10008AEC08F00FC04BF010C04CF011C04DF031
:101D200012C04EF0000E136E000E146E080E156EEB
:101D3000420E166E4BC00FF04CC010F04DC011F0AB
:101D40004EC012F08AEC08F00FC028F010C029F045
:101D500011C02AF012C02BF0000E2C6E000E2D6E5A
:101D6000000E2E6E400E2F6E9FEC0AF028C047F03A
:101D700029C048F02AC049F02BC04AF047C041F0C2
:101D800048C042F049C043F04AC044F012000F0E70
:101D9000C112939093928A908A92D9EC10F0ABEC96
:101DA0000FF04BEC0EF041C082F042C083F043C014
:101DB00084F044C085F0D2EC10F0020E046E010EE7
:101DC00042EC0FF0010E056E0550D8A4080E066E09
:101DD000F1EC0FF0010E046E020E42EC0FF082C027
:101DE00059F083C05AF084C05BF085C05CF0600E8F
:101DF0005D6E020E5E6E6EEC06F0100E056E055006
:101E0000D8A4080E066EF1EC0FF0600E056E066A9F
:101E1000F1EC0FF0170E056E0550D8A4080E066EF3
:101E2000F1EC0FF082C001F083C002F084C003F037
:101E300085C004F0000E056E000E066E200E076EC3
:101E4000410E086EC9EC0DF0D8B029EF0FF02BEF62
:101E50000FF02FEF0FF08A908A8231EF0FF08A8017
:101E60008A920D0E0001816F2D0E806FD70EE82E25
:101E7000FED7802FFCD7812FFAD700D0D1EF0EF0FC
:101E800000EF00F0056E0504D8A449EF0FF04BEF0A
:101E90000FF05CEF0FF004507F0F086E08380F0B47
:101EA000066E08500F0B076E0650B7EC10F0075087
:101EB000B7EC10F0AAEF0FF0020E0518D8A463EFEC
:101EC0000FF065EF0FF076EF0FF00450BF0F086EC4
:101ED00008380F0B066E08500F0B076E0650B7EC54
:101EE00010F00750B7EC10F0AAEF0FF0030E051832
:101EF000D8A47DEF0FF07FEF0FF090EF0FF00450BC
:101F0000930F086E08380F0B066E08500F0B076E04
:101F10000650B7EC10F00750B7EC10F0AAEF0FF036
:101F2000040E0518D8A497EF0FF099EF0FF0AAEF61
:101F30000FF00450D30F086E08380F0B066E0850D0
:101F40000F0B076E0650B7EC10F00750B7EC10F00F
:101F5000AAEF0FF01200959495969598959A959CF6
:101F6000959E000E30EC10F0020E056E380E046ED9
:101F7000AD0EE82EFED7042EFCD7052EFAD70000B2
:101F8000030EB7EC10F04E0E046EEB0EE82EFED7EB
:101F9000042EFCD70000030EB7EC10F0AC0E046E5C
:101FA0006C0EE82EFED7042EFCD700D0030EB7EC43
:101FB00010F0020EB7EC10F0020EB7EC10F0080EA5
:101FC000B7EC10F0000EB7EC10F00C0EB7EC10F000
:101FD000000EB7EC10F0060EB7EC10F0D2EC10F0DB
:101FE0001200000E0A6E000E096E11EF10F009507B
:101FF0000524076E0A500620086E07C0F6FF08C0C9
:10200000F7FFF86A070EF76403D00800F55005D013
:10201000F6CFD9FFF7CFDAFFDF509DEC10F0094A79
:102020000A2A09500524076E0A500620086E07C0C8
:10203000F6FF08C0F7FFF86A070EF76403D0080040
:10204000F55005D0F6CFD9FFF7CFDAFFDF50000902
:10205000D8A42DEF10F02FEF10F0F7EF0FF01200D3
:10206000016E01A036EF10F038EF10F03BEF10F0EA
:102070008C883CEF10F08C9801A241EF10F043EFF8
:1020800010F046EF10F08C8A47EF10F08C9A01A404
:102090004CEF10F04EEF10F051EF10F08C8C52EF2F
:1020A00010F08C9C01A657EF10F059EF10F05CEF88
:1020B00010F08C8E5DEF10F08C9E1200000E551A01
:1020C000000E561A000E571A800E581A51C041F0D1
:1020D00052C042F053C043F054C044F055C045F0E4
:1020E00056C046F057C047F058C048F00EEC04F018
:1020F00041C051F042C052F043C053F044C054F0CC
:1021000012000150021003100410D8B48AEF10F02E
:102110008CEF10F094EF10F0000E011A000E021A6E
:10212000000E031A800E041A01C001F002C002F072
:1021300003C003F004C004F01200046E04500F0B3F
:10214000026E0450F00B036E8C8403380F0B30ECDE
:1021500010F08C86A00EE82EFED78C96025030EC44
:1021600010F08C86A00EE82EFED78C961200036E1F
:102170008C94035030EC10F08C863F0E026E550E9E
:10218000E82EFED7022EFCD700008C96120000EE3F
:1021900060F0140EEE6AE806FDE1000EF86E000134
:1021A000C7EF0EF0000EB7EC10F0010EB7EC10F018
:1021B0001200939493868A94F80ECD6ECD8012000F
:020000040030CA
:0E000000210E191EFF8181FF0FC00FE00F407F
:00000001FF
