:0400000007EF00F016
:0A000800068231ED04F061EF04F010
:1008000000000F0EC11293908A8093928A92470E35
:10081000D56ED58EF28AF294F28CF28E000ED76EDF
:10082000D10ED66E8AA217EF04F01BEF04F0026A15
:10083000022A1CEF04F0026A02468A500218FD0BDD
:1008400002188A6E3D0E036EE10E026E400EE82E17
:10085000FED7022EFCD7032EFAD712EF04F007EFD3
:1008600000F00600F2A437EF04F039EF04F05FEF78
:1008700004F0044A052AE80E041807E1030E0518DF
:10088000D8A445EF04F047EF04F05AEF04F08AA033
:100890004CEF04F050EF04F0016A012A51EF04F02C
:1008A000016A8A500118FE0B01188A6E000E056E4F
:1008B000000E046E000ED76ED10ED66EF294069224
:1008C0001100056A046A06900692000101EF04F027
:020000040030CA
:0E000000210E191EFF8181FF0FC00FE00F407F
:00000001FF
