:0400000007EF00F016
:0A000800028201ED04F032EF04F073
:1008000000000600F2A407EF04F009EF04F01DEF6A
:1008100004F08AA00EEF04F012EF04F0016A012A3E
:1008200013EF04F0016A8A500118FE0B01188A6E5A
:10083000480ED76EE50ED66EF294029211000F0E9E
:10084000C11293908A80070ED56ED58EF28AF294EB
:10085000F28CF28E480ED76EE50ED66E2EEF04F0B7
:0E08600007EF00F00290029200011FEF04F07B
:020000040030CA
:0E000000210E191EFF8181FF0FC00FE00F407F
:00000001FF
