:040000004DEF05F0CB
:100800000000000E166E14BE0AEF04F008EF04F0AC
:1008100014EF04F0141E131E121E116C000E12228F
:1008200013221422010E166E10BE1BEF04F019EFF6
:1008300004F025EF04F0101E0F1E0E1E0D6C000EAE
:100840000E220F221022010E161A000E176E000E35
:10085000186E000E196E000E1A6E11501210131041
:100860001410D8B436EF04F038EF04F06EEF04F053
:10087000010E156E42EF04F0D89011361236133681
:100880001436152A14AE47EF04F049EF04F03CEF9C
:1008900004F0D8901736183619361A3611500D5CF8
:1008A00012500E5813500F5814501058D8A05BEF28
:1008B00004F05DEF04F066EF04F011500D5E12508D
:1008C0000E5A13500F5A1450105A1780D8901432E1
:1008D000133212321132152E49EF04F01650D8B4EB
:1008E00074EF04F076EF04F07EEF04F01A1E191E88
:1008F000181E176C000E182219221A2217C00DF0AC
:1009000018C00EF019C00FF01AC010F012000E0E31
:10091000C16E000EC26E8F0EC06EC2803E0ECB6ED8
:10092000000EBE6E9494030ECA6E0C0EBD6E000EC9
:10093000CC6ECA84C282C2B2A0EF04F0A2EF04F06F
:100940009BEF04F0C3CF2FF0C4CF30F02FC01BF0CB
:1009500030C01CF0000E1CBEFF0E1D6E1E6E000E81
:100960001F6E000E206E000E216E000E226EFF0E16
:10097000236E030E246E000E256E000E266E000EF2
:10098000276E000E286E000E296E000E2A6EFA0EDB
:100990002B6E000E2C6E000E2D6E000E2E6EDBECFC
:1009A00004F01B50316E3140E8423F0BBE6E9AEFAF
:1009B00004F000EF00F01F501B5C016E20501C582B
:1009C000026E21501D58036E22501E58046E27508F
:1009D0002B5C056E28502C58066E29502D58076E3A
:1009E0002A502E58086E18EC05F001C00DF002C018
:1009F0000EF003C00FF004C010F01F50235C116E06
:100A000020502458126E21502558136E225026581B
:100A1000146E01EC04F027500D241B6E28500E209C
:100A20001C6E29500F201D6E2A5010201E6E1200C1
:100A3000000E096E000E0A6E000E0B6E000E0C6E9C
:100A400001A025EF05F027EF05F02FEF05F0055089
:100A5000092606500A2207500B2208500C22D89073
:100A60000536063607360836D8900432033202328D
:100A700001320150021003100410D8A442EF05F017
:100A800044EF05F020EF05F009C001F00AC002F0C4
:100A90000BC003F00CC004F01200000187EF04F05B
:020000040030CA
:0E000000210E191EFF8181FF0FC00FE00F407F
:00000001FF
