:04000000D0EF05F048
:1008000000436164656E6120526563696269646179
:100810003A20004C656420456E63656E6469646FC0
:100820000D0A004C6564204170616761646F0D0AB8
:1008300000656E63656E6465720061706167617208
:1008400000000F0EC11293908A90800E0E6E250E3E
:100850000F6E000E106E000E116EE9EC04F0C2EC8B
:1008600005F002BE3CEF04F0025008E10104D8A0FC
:100870003CEF04F03EEF04F02FEF04F0180E016E91
:10088000000E036E140E026E82EC05F0010E026E75
:100890000250D8A4080E036E53EC05F0180E026E39
:1008A000036A53EC05F02E0E026E0250D8A4080E17
:1008B000036E53EC05F0180E016E310E026E20EC43
:1008C00005F001500210D8A468EF04F06AEF04F0BC
:1008D00073EF04F08A80130E026E0250D8A4080E43
:1008E000036E53EC05F0180E016E3A0E026E20EC0A
:1008F00005F001500210D8A480EF04F082EF04F05C
:100900008BEF04F08A90230E026E0250D8A4080EDA
:10091000036E53EC05F02E0E026E0250D8A4080EA2
:10092000036E53EC05F02FEF04F000EF00F0000E23
:10093000096E000E0A6E000E0B6E000E0C6E055056
:10094000061007100810D8B4A8EF04F0AAEF04F0BE
:10095000E0EF04F0010E0D6EB4EF04F0D890053610
:100960000636073608360D2A08AEB9EF04F0BBEF9D
:1009700004F0AEEF04F0D89009360A360B360C3688
:100980000550015C0650025807500358085004589F
:10099000D8A0CDEF04F0CFEF04F0D8EF04F005506D
:1009A000015E0650025A0750035A0850045A098043
:1009B000D89008320732063205320D2EBBEF04F014
:1009C00009C001F00AC002F00BC003F00CC004F033
:1009D0001200949C948E240EAC6E900EAB6E000EA2
:1009E000B86EB886000E016E6C0E026EDC0E036EE1
:1009F000020E046E0EC012F00FC013F010C014F0FF
:100A000011C015F0020ED890123613361436153672
:100A1000E82E03EF05F012C005F013C006F014C075
:100A200007F015C008F097EC04F0FF0E0124166ED5
:100A3000FF0E0220176E16C0AFFF1750B06E1200E7
:100A400024EF05F0012A022A0150D96EDA6ADF503C
:100A5000036E02C0F6FF080EF76E0800F55003188B
:100A6000D8A435EF05F037EF05F042EF05F001505F
:100A7000D96EDA6ADF50D8A440EF05F042EF05F0F6
:100A800022EF05F00150D96EDA6ADF50036E02C022
:100A9000F6FF080EF76E0800F550035C016E026A5F
:100AA000D8A00206120069EF05F002C0F6FF03C0ED
:100AB000F7FFF86A070EF76403D00800F55005D079
:100AC000F6CFE1FFF7CFE2FFE750DBEC05F0024A9B
:100AD000032A02C0F6FF03C0F7FFF86A070EF764A7
:100AE00003D00800F55005D0F6CFE1FFF7CFE2FFC5
:100AF000E7500009D8A47FEF05F081EF05F055EF2E
:100B000005F01200000E066E000E056EAFEC05F04B
:100B1000046E01500524D96EDA6A04C0DFFF054A6D
:100B2000062A0250055C03500658D8A09AEF05F03B
:100B30009CEF05F09EEF05F0A7EF05F00A0E0418F4
:100B4000D8A4A5EF05F0A7EF05F086EF05F001505A
:100B50000524D96EDA6AFE0ED926DF6A12009EAA33
:100B6000B4EF05F0B6EF05F0AFEF05F0ABA2BBEFC9
:100B700005F0BDEF05F0BFEF05F0AB98AB889E9A8E
:100B8000AE5012009EBAC7EF05F0CBEF05F0036A36
:100B9000032ACCEF05F0036A0350016E026A1200CB
:100BA00000EE18F0140EEE6AE806FDE1000EF86E95
:100BB000000121EF04F0016EACA2E1EF05F0E3EFDC
:0C0BC00005F0DCEF05F001C0ADFF1200F5
:020000040030CA
:0E000000210E191EFF8181FF0FC00FE00F407F
:00000001FF
