:0400000059EF04F0C0
:1008000000000F0EC11293909392000E956E000E91
:100810008C6E8A908A92000E0E6E000E0F6E000E85
:100820000D6E000E0C6E8A808A920F50010FD96EE9
:10083000DA6ADF508C6E3F0E0B6E550EE82EFED737
:100840000B2EFCD700008A828A900E50010FD96EC1
:10085000DA6ADF508C6E3F0E0B6E550EE82EFED717
:100860000B2EFCD700000C4A0D2A0DBE41EF04F000
:100870000D5009E1140E0C5CD8A041EF04F043EFD9
:1008800004F013EF04F00F2A090E0F644AEF04F08E
:100890004CEF04F00FEF04F00E2A090E0E6453EF34
:1008A00004F055EF04F00DEF04F00BEF04F000EF4F
:1008B00000F0DA0EF66E080EF76E000EF86E00EE1F
:1008C00001F010EE0AF00900F5CFEEFFE550E1501F
:1008D000FAE10F6A000101EF04F03F065B4F666D1D
:0408E0007D077F6FA2
:020000040030CA
:0E000000210E191EFF8181FF0FC00FE00F407F
:00000001FF
