:0400000007EF00F016
:0A000800028201ED04F032EF04F073
:10080000000006009EA007EF04F009EF04F01DEFC2
:1008100004F08AA00EEF04F012EF04F0016A012A3E
:1008200013EF04F0016A8A500118FE0B01188A6E5A
:100830008A0ECF6ED00ECE6E9E90029211000F0ED9
:10084000C11293908A80F80ECD6ECD809D809E90CF
:10085000F28CF28E8A0ECF6ED00ECE6E2EEF04F09A
:0E08600007EF00F00290029200011FEF04F07B
:020000040030CA
:0E000000210E191EFF8181FF0FC00FE00F407F
:00000001FF
