:04000000FAEF04F01F
:100800000000000E096E000E0A6E000E0B6E000E48
:100810000C6E0550061007100810D8B412EF04F043
:1008200014EF04F04AEF04F0010E0D6E1EEF04F019
:10083000D89005360636073608360D2A08AE23EF5F
:1008400004F025EF04F018EF04F0D89009360A36CA
:100850000B360C360550015C065002580750035801
:1008600008500458D8A037EF04F039EF04F042EFF5
:1008700004F00550015E0650025A0750035A085012
:10088000045A0980D89008320732063205320D2EFC
:1008900025EF04F009C001F00AC002F00BC003F01C
:1008A0000CC004F012000F0EC112939093928A9024
:1008B0008A92800E0E6E250E0F6E000E106E000EC8
:1008C000116EA2EC04F0ECEC04F002BE70EF04F048
:1008D000025008E10104D8A070EF04F072EF04F0B8
:1008E00063EF04F0D9EC04F01A6E83EF04F08A8011
:1008F00063EF04F08A9063EF04F08A8263EF04F000
:100900008A9263EF04F01A50186E196A1950000A9F
:10091000D8B48DEF04F063EF04F01850610AD8B436
:1009200077EF04F0030AD8B47AEF04F0010AD8B4E0
:100930007DEF04F0070AD8B480EF04F063EF04F011
:1009400000EF00F0949C948E240EAC6E900EAB6E73
:10095000000EB86EB886000E016E6C0E026EDC0ED4
:10096000036E020E046E0EC012F00FC013F010C022
:1009700014F011C015F0020ED8901236133614364A
:100980001536E82EBCEF04F012C005F013C006F0D7
:1009900014C007F015C008F001EC04F0FF0E0124AC
:1009A000166EFF0E0220176E16C0AFFF1750B06E06
:1009B00012009EAADEEF04F0E0EF04F0D9EF04F09D
:1009C000ABA2E5EF04F0E7EF04F0E9EF04F0AB9839
:1009D000AB889E9AAE5012009EBAF1EF04F0F5EF8C
:1009E00004F0036A032AF6EF04F0036A0350016E71
:1009F000026A12001A6A000EF86E000153EF04F04A
:020000040030CA
:0E000000210E191EFF8181FF0FC00FE00F407F
:00000001FF
