:040000005CEF04F0BD
:1008000000000F0EC112938093829590959295945B
:100810009596000E8C6E81A010EF04F012EF04F09C
:1008200016EF04F027EC04F00BEF04F081A21BEFAD
:1008300004F01DEF04F021EF04F043EC04F00BEFA3
:1008400004F0000E8C6E0BEF04F000EF00F0000ED1
:10085000066E0650010FD96EDA6ADF508C6E5E0E9E
:10086000056E800EE82EFED7052EFCD700D0062A96
:100870000650800A7C0FD8A040EF04F042EF04F04D
:1008800029EF04F01200030E066E0650010FD96E18
:10089000DA6ADF508C6E5E0E056E800EE82EFED793
:1008A000052EFCD700D0060606BE5BEF04F059EF1C
:1008B00004F045EF04F01200DE0EF66E080EF76E3F
:1008C000000EF86E00EE01F010EE04F00900F5CF16
:1008D000EEFFE550E150FAE1000101EF04F00C06F3
:0208E00003090A
:020000040030CA
:0E000000210E191EFF8181FF0FC00FE00F407F
:00000001FF
