:0400000072EF07F0A4
:10080000005465636C613A200000839E838C838A68
:10081000838883B60EEF04F010EF04F029EF04F0A4
:10082000200E016E2A0EE82EFED7012EFCD783A6DD
:100830001CEF04F01EEF04F017EF04F04E0E016EF3
:10084000EB0EE82EFED7012EFCD70000310E16EF7E
:1008500006F083B42EEF04F030EF04F049EF04F01B
:10086000200E016E2A0EE82EFED7012EFCD783A49F
:100870003CEF04F03EEF04F037EF04F04E0E016E53
:10088000EB0EE82EFED7012EFCD70000320E16EF3D
:1008900006F083B24EEF04F050EF04F069EF04F07D
:1008A000200E016E2A0EE82EFED7012EFCD783A261
:1008B0005CEF04F05EEF04F057EF04F04E0E016EB3
:1008C000EB0EE82EFED7012EFCD70000330E16EFFC
:1008D00006F083B06EEF04F070EF04F089EF04F0DF
:1008E000200E016E2A0EE82EFED7012EFCD783A023
:1008F0007CEF04F07EEF04F077EF04F04E0E016E13
:10090000EB0EE82EFED7012EFCD70000410E16EFAD
:1009100006F0838E839C838A838883B692EF04F0EB
:1009200094EF04F0ADEF04F0200E016E2A0EE82ED5
:10093000FED7012EFCD783A6A0EF04F0A2EF04F0AF
:100940009BEF04F04E0E016EEB0EE82EFED7012E4B
:10095000FCD70000340E16EF06F083B4B2EF04F0BB
:10096000B4EF04F0CDEF04F0200E016E2A0EE82E55
:10097000FED7012EFCD783A4C0EF04F0C2EF04F031
:10098000BBEF04F04E0E016EEB0EE82EFED7012EEB
:10099000FCD70000350E16EF06F083B2D2EF04F05C
:1009A000D4EF04F0EDEF04F0200E016E2A0EE82ED5
:1009B000FED7012EFCD783A2E0EF04F0E2EF04F0B3
:1009C000DBEF04F04E0E016EEB0EE82EFED7012E8B
:1009D000FCD70000360E16EF06F083B0F2EF04F0FD
:1009E000F4EF04F00DEF05F0200E016E2A0EE82E54
:1009F000FED7012EFCD783A000EF05F002EF05F033
:100A0000FBEF04F04E0E016EEB0EE82EFED7012E2A
:100A1000FCD70000420E16EF06F0838E838C839A7B
:100A2000838883B616EF05F018EF05F031EF05F077
:100A3000200E016E2A0EE82EFED7012EFCD783A6CB
:100A400024EF05F026EF05F01FEF05F04E0E016EC6
:100A5000EB0EE82EFED7012EFCD70000370E16EF66
:100A600006F083B436EF05F038EF05F051EF05F0EE
:100A7000200E016E2A0EE82EFED7012EFCD783A48D
:100A800044EF05F046EF05F03FEF05F04E0E016E26
:100A9000EB0EE82EFED7012EFCD70000380E16EF25
:100AA00006F083B256EF05F058EF05F071EF05F050
:100AB000200E016E2A0EE82EFED7012EFCD783A24F
:100AC00064EF05F066EF05F05FEF05F04E0E016E86
:100AD000EB0EE82EFED7012EFCD70000390E16EFE4
:100AE00006F083B076EF05F078EF05F091EF05F0B2
:100AF000200E016E2A0EE82EFED7012EFCD783A011
:100B000084EF05F086EF05F07FEF05F04E0E016EE5
:100B1000EB0EE82EFED7012EFCD70000430E16EF99
:100B200006F0838E838C838A839883B69AEF05F0D0
:100B30009CEF05F0B5EF05F0200E016E2A0EE82EB1
:100B4000FED7012EFCD783A6A8EF05F0AAEF05F08B
:100B5000A3EF05F04E0E016EEB0EE82EFED7012E30
:100B6000FCD700002A0E16EF06F083B4BAEF05F0AA
:100B7000BCEF05F0D5EF05F0200E016E2A0EE82E31
:100B8000FED7012EFCD783A4C8EF05F0CAEF05F00D
:100B9000C3EF05F04E0E016EEB0EE82EFED7012ED0
:100BA000FCD70000300E16EF06F083B2DAEF05F046
:100BB000DCEF05F0F5EF05F0200E016E2A0EE82EB1
:100BC000FED7012EFCD783A2E8EF05F0EAEF05F08F
:100BD000E3EF05F04E0E016EEB0EE82EFED7012E70
:100BE000FCD70000230E16EF06F083B0FAEF05F0F5
:100BF000FCEF05F015EF06F0200E016E2A0EE82E30
:100C0000FED7012EFCD783A008EF06F00AEF06F00E
:100C100003EF06F04E0E016EEB0EE82EFED7012E0E
:100C2000FCD70000440E16EF06F0000E1200056E11
:100C30000504D8A41EEF06F020EF06F031EF06F011
:100C400004507F0F086E08380F0B066E08500F0B0C
:100C5000076E065059EC07F0075059EC07F07FEF8C
:100C600006F0020E0518D8A438EF06F03AEF06F0A9
:100C70004BEF06F00450BF0F086E08380F0B066EDE
:100C800008500F0B076E065059EC07F0075059EC4F
:100C900007F07FEF06F0030E0518D8A452EF06F018
:100CA00054EF06F065EF06F00450930F086E083815
:100CB0000F0B066E08500F0B076E065059EC07F02D
:100CC000075059EC07F07FEF06F0040E0518D8A482
:100CD0006CEF06F06EEF06F07FEF06F00450D30FD6
:100CE000086E08380F0B066E08500F0B076E065083
:100CF00059EC07F0075059EC07F07FEF06F01200AF
:100D0000939493969398939A939C939E000EC6EC1B
:100D100006F0020E056E380E046EAD0EE82EFED7FC
:100D2000042EFCD7052EFAD70000030E59EC07F06D
:100D30004E0E046EEB0EE82EFED7042EFCD70000FC
:100D4000030E59EC07F0AC0E046E6C0EE82EFED7C5
:100D5000042EFCD700D0030E59EC07F0020E59EC1C
:100D600007F0020E59EC07F0080E59EC07F0000EE0
:100D700059EC07F00C0E59EC07F0000E59EC07F097
:100D8000060E59EC07F07AEC07F01200016E01A094
:100D9000CCEF06F0CEEF06F0D1EF06F08A88D2EF66
:100DA00006F08A9801A2D7EF06F0D9EF06F0DCEF43
:100DB00006F08A8ADDEF06F08A9A01A4E2EF06F0D7
:100DC000E4EF06F0E7EF06F08A8CE8EF06F08A9C85
:100DD00001A6EDEF06F0EFEF06F0F2EF06F08A8ED7
:100DE000F3EF06F08A9E12000F0EC11269EC07F0B5
:100DF00080EC06F0010E046E010E17EC06F0010EF9
:100E0000056E1EEC07F005EC04F0096E0950D8B42D
:100E10000CEF07F00EEF07F003EF07F0010E046E82
:100E2000010E17EC06F0010E056E1EEC07F00950DE
:100E30003FEC07F003EF07F000EF00F0000E086E44
:100E4000000E076E2FEF07F005500724066E06C050
:100E5000F6FF0800F5503FEC07F0074A082A055056
:100E60000724066E06C0F6FF0800F5500009D8A456
:100E70003CEF07F03EEF07F024EF07F01200046E9E
:100E800004500F0B026E0450F00B036E8A8403387B
:100E90000F0BC6EC06F08A86A00EE82EFED78A96C7
:100EA0000250C6EC06F08A86A00EE82EFED78A967F
:100EB0001200036E8A940350C6EC06F08A863F0E39
:100EC000026E550EE82EFED7022EFCD700008A9641
:100ED0001200959E959C959A9598958695849582F5
:100EE00095801200096A000EF86E080EF76E000178
:100EF000F4EF06F0000E59EC07F0010E59EC07F084
:020F00001200DD
:020000040020DA
:08000000FFFFFFFFFFFFFFFF00
:020000040030CA
:0E000000210E191EFF8181FF0FC00FE00F407F
:00000001FF
